{
	"contracts/myContract.sol": {
		"BloggingApp": {
			"abi": [
				{
					"inputs": [],
					"stateMutability": "nonpayable",
					"type": "constructor"
				},
				{
					"inputs": [
						{
							"internalType": "address",
							"name": "_user",
							"type": "address"
						},
						{
							"internalType": "address",
							"name": "_adminAddr",
							"type": "address"
						}
					],
					"name": "deleteBlogs",
					"outputs": [],
					"stateMutability": "nonpayable",
					"type": "function"
				},
				{
					"inputs": [
						{
							"internalType": "string",
							"name": "username",
							"type": "string"
						},
						{
							"internalType": "address",
							"name": "_addr",
							"type": "address"
						}
					],
					"name": "registerUser",
					"outputs": [
						{
							"internalType": "string",
							"name": "",
							"type": "string"
						}
					],
					"stateMutability": "nonpayable",
					"type": "function"
				},
				{
					"inputs": [
						{
							"internalType": "address",
							"name": "_user",
							"type": "address"
						}
					],
					"name": "viewBlog",
					"outputs": [
						{
							"components": [
								{
									"internalType": "string",
									"name": "title",
									"type": "string"
								},
								{
									"internalType": "string",
									"name": "body",
									"type": "string"
								},
								{
									"internalType": "bool",
									"name": "exists",
									"type": "bool"
								}
							],
							"internalType": "struct BloggingApp.Blog",
							"name": "",
							"type": "tuple"
						}
					],
					"stateMutability": "view",
					"type": "function"
				},
				{
					"inputs": [
						{
							"internalType": "string",
							"name": "title",
							"type": "string"
						},
						{
							"internalType": "string",
							"name": "body",
							"type": "string"
						},
						{
							"internalType": "address",
							"name": "_user",
							"type": "address"
						}
					],
					"name": "writeBlog",
					"outputs": [],
					"stateMutability": "nonpayable",
					"type": "function"
				}
			],
			"devdoc": {
				"kind": "dev",
				"methods": {},
				"version": 1
			},
			"evm": {
				"assembly": "    /* \"contracts/myContract.sol\":61:1327  contract BloggingApp {... */\n  mstore(0x40, 0x80)\n    /* \"contracts/myContract.sol\":1105:1153  constructor(){... */\n  callvalue\n  dup1\n  iszero\n  tag_1\n  jumpi\n  0x00\n  dup1\n  revert\ntag_1:\n  pop\n    /* \"contracts/myContract.sol\":1135:1145  msg.sender */\n  caller\n    /* \"contracts/myContract.sol\":1129:1134  admin */\n  0x02\n  0x00\n    /* \"contracts/myContract.sol\":1129:1145  admin=msg.sender */\n  0x0100\n  exp\n  dup2\n  sload\n  dup2\n  0xffffffffffffffffffffffffffffffffffffffff\n  mul\n  not\n  and\n  swap1\n  dup4\n  0xffffffffffffffffffffffffffffffffffffffff\n  and\n  mul\n  or\n  swap1\n  sstore\n  pop\n    /* \"contracts/myContract.sol\":61:1327  contract BloggingApp {... */\n  dataSize(sub_0)\n  dup1\n  dataOffset(sub_0)\n  0x00\n  codecopy\n  0x00\n  return\nstop\n\nsub_0: assembly {\n        /* \"contracts/myContract.sol\":61:1327  contract BloggingApp {... */\n      mstore(0x40, 0x80)\n      callvalue\n      dup1\n      iszero\n      tag_1\n      jumpi\n      0x00\n      dup1\n      revert\n    tag_1:\n      pop\n      jumpi(tag_2, lt(calldatasize, 0x04))\n      shr(0xe0, calldataload(0x00))\n      dup1\n      0x0e54b872\n      eq\n      tag_3\n      jumpi\n      dup1\n      0x2483dc04\n      eq\n      tag_4\n      jumpi\n      dup1\n      0x6e7ef18e\n      eq\n      tag_5\n      jumpi\n      dup1\n      0xa52745e0\n      eq\n      tag_6\n      jumpi\n    tag_2:\n      0x00\n      dup1\n      revert\n        /* \"contracts/myContract.sol\":332:624  function registerUser(string memory username, address _addr) public returns(string memory){... */\n    tag_3:\n      tag_7\n      0x04\n      dup1\n      calldatasize\n      sub\n      dup2\n      add\n      swap1\n      tag_8\n      swap2\n      swap1\n      tag_9\n      jump\t// in\n    tag_8:\n      tag_10\n      jump\t// in\n    tag_7:\n      mload(0x40)\n      tag_11\n      swap2\n      swap1\n      tag_12\n      jump\t// in\n    tag_11:\n      mload(0x40)\n      dup1\n      swap2\n      sub\n      swap1\n      return\n        /* \"contracts/myContract.sol\":1161:1321  function deleteBlogs(address _user, address _adminAddr) public {... */\n    tag_4:\n      tag_13\n      0x04\n      dup1\n      calldatasize\n      sub\n      dup2\n      add\n      swap1\n      tag_14\n      swap2\n      swap1\n      tag_15\n      jump\t// in\n    tag_14:\n      tag_16\n      jump\t// in\n    tag_13:\n      stop\n        /* \"contracts/myContract.sol\":699:880  function writeBlog(string memory title, string memory body, address _user) public{... */\n    tag_5:\n      tag_17\n      0x04\n      dup1\n      calldatasize\n      sub\n      dup2\n      add\n      swap1\n      tag_18\n      swap2\n      swap1\n      tag_19\n      jump\t// in\n    tag_18:\n      tag_20\n      jump\t// in\n    tag_17:\n      stop\n        /* \"contracts/myContract.sol\":887:1046  function viewBlog(address _user) public view returns(Blog memory){... */\n    tag_6:\n      tag_21\n      0x04\n      dup1\n      calldatasize\n      sub\n      dup2\n      add\n      swap1\n      tag_22\n      swap2\n      swap1\n      tag_23\n      jump\t// in\n    tag_22:\n      tag_24\n      jump\t// in\n    tag_21:\n      mload(0x40)\n      tag_25\n      swap2\n      swap1\n      tag_26\n      jump\t// in\n    tag_25:\n      mload(0x40)\n      dup1\n      swap2\n      sub\n      swap1\n      return\n        /* \"contracts/myContract.sol\":332:624  function registerUser(string memory username, address _addr) public returns(string memory){... */\n    tag_10:\n        /* \"contracts/myContract.sol\":408:421  string memory */\n      0x60\n        /* \"contracts/myContract.sol\":436:441  users */\n      0x00\n        /* \"contracts/myContract.sol\":436:448  users[_addr] */\n      dup1\n        /* \"contracts/myContract.sol\":442:447  _addr */\n      dup4\n        /* \"contracts/myContract.sol\":436:448  users[_addr] */\n      0xffffffffffffffffffffffffffffffffffffffff\n      and\n      0xffffffffffffffffffffffffffffffffffffffff\n      and\n      dup2\n      mstore\n      0x20\n      add\n      swap1\n      dup2\n      mstore\n      0x20\n      add\n      0x00\n      keccak256\n        /* \"contracts/myContract.sol\":436:459  users[_addr].registered */\n      0x01\n      add\n      0x00\n      swap1\n      sload\n      swap1\n      0x0100\n      exp\n      swap1\n      div\n      0xff\n      and\n        /* \"contracts/myContract.sol\":433:489  if(users[_addr].registered) revert(\"Already registered\") */\n      iszero\n      tag_28\n      jumpi\n        /* \"contracts/myContract.sol\":461:489  revert(\"Already registered\") */\n      mload(0x40)\n      0x08c379a000000000000000000000000000000000000000000000000000000000\n      dup2\n      mstore\n      0x04\n      add\n      tag_29\n      swap1\n      tag_30\n      jump\t// in\n    tag_29:\n      mload(0x40)\n      dup1\n      swap2\n      sub\n      swap1\n      revert\n        /* \"contracts/myContract.sol\":433:489  if(users[_addr].registered) revert(\"Already registered\") */\n    tag_28:\n        /* \"contracts/myContract.sol\":517:537  User(username, true) */\n      mload(0x40)\n      dup1\n      0x40\n      add\n      0x40\n      mstore\n      dup1\n        /* \"contracts/myContract.sol\":522:530  username */\n      dup5\n        /* \"contracts/myContract.sol\":517:537  User(username, true) */\n      dup2\n      mstore\n      0x20\n      add\n        /* \"contracts/myContract.sol\":532:536  true */\n      0x01\n        /* \"contracts/myContract.sol\":517:537  User(username, true) */\n      iszero\n      iszero\n      dup2\n      mstore\n      pop\n        /* \"contracts/myContract.sol\":502:507  users */\n      0x00\n        /* \"contracts/myContract.sol\":502:514  users[_addr] */\n      dup1\n        /* \"contracts/myContract.sol\":508:513  _addr */\n      dup5\n        /* \"contracts/myContract.sol\":502:514  users[_addr] */\n      0xffffffffffffffffffffffffffffffffffffffff\n      and\n      0xffffffffffffffffffffffffffffffffffffffff\n      and\n      dup2\n      mstore\n      0x20\n      add\n      swap1\n      dup2\n      mstore\n      0x20\n      add\n      0x00\n      keccak256\n        /* \"contracts/myContract.sol\":502:537  users[_addr] = User(username, true) */\n      0x00\n      dup3\n      add\n      mload\n      dup2\n      0x00\n      add\n      swap1\n      dup2\n      tag_31\n      swap2\n      swap1\n      tag_32\n      jump\t// in\n    tag_31:\n      pop\n      0x20\n      dup3\n      add\n      mload\n      dup2\n      0x01\n      add\n      exp(0x0100, 0x00)\n      dup2\n      sload\n      dup2\n      0xff\n      mul\n      not\n      and\n      swap1\n      dup4\n      iszero\n      iszero\n      mul\n      or\n      swap1\n      sstore\n      pop\n      swap1\n      pop\n      pop\n        /* \"contracts/myContract.sol\":579:587  username */\n      dup3\n        /* \"contracts/myContract.sol\":562:616  abi.encodePacked(username, \" successfully registered\") */\n      add(0x20, mload(0x40))\n      tag_33\n      swap2\n      swap1\n      tag_34\n      jump\t// in\n    tag_33:\n      mload(0x40)\n      0x20\n      dup2\n      dup4\n      sub\n      sub\n      dup2\n      mstore\n      swap1\n      0x40\n      mstore\n        /* \"contracts/myContract.sol\":548:617  return string(abi.encodePacked(username, \" successfully registered\")) */\n      swap1\n      pop\n        /* \"contracts/myContract.sol\":332:624  function registerUser(string memory username, address _addr) public returns(string memory){... */\n      swap3\n      swap2\n      pop\n      pop\n      jump\t// out\n        /* \"contracts/myContract.sol\":1161:1321  function deleteBlogs(address _user, address _adminAddr) public {... */\n    tag_16:\n        /* \"contracts/myContract.sol\":1250:1260  _adminAddr */\n      dup1\n        /* \"contracts/myContract.sol\":1243:1260  admin==_adminAddr */\n      0xffffffffffffffffffffffffffffffffffffffff\n      and\n        /* \"contracts/myContract.sol\":1243:1248  admin */\n      0x02\n      0x00\n      swap1\n      sload\n      swap1\n      0x0100\n      exp\n      swap1\n      div\n      0xffffffffffffffffffffffffffffffffffffffff\n      and\n        /* \"contracts/myContract.sol\":1243:1260  admin==_adminAddr */\n      0xffffffffffffffffffffffffffffffffffffffff\n      and\n      eq\n        /* \"contracts/myContract.sol\":1235:1277  require(admin==_adminAddr, \"Unauthorized\") */\n      tag_36\n      jumpi\n      mload(0x40)\n      0x08c379a000000000000000000000000000000000000000000000000000000000\n      dup2\n      mstore\n      0x04\n      add\n      tag_37\n      swap1\n      tag_38\n      jump\t// in\n    tag_37:\n      mload(0x40)\n      dup1\n      swap2\n      sub\n      swap1\n      revert\n    tag_36:\n        /* \"contracts/myContract.sol\":1308:1313  false */\n      0x00\n        /* \"contracts/myContract.sol\":1288:1293  blogs */\n      0x01\n        /* \"contracts/myContract.sol\":1288:1300  blogs[_user] */\n      0x00\n        /* \"contracts/myContract.sol\":1294:1299  _user */\n      dup5\n        /* \"contracts/myContract.sol\":1288:1300  blogs[_user] */\n      0xffffffffffffffffffffffffffffffffffffffff\n      and\n      0xffffffffffffffffffffffffffffffffffffffff\n      and\n      dup2\n      mstore\n      0x20\n      add\n      swap1\n      dup2\n      mstore\n      0x20\n      add\n      0x00\n      keccak256\n        /* \"contracts/myContract.sol\":1288:1307  blogs[_user].exists */\n      0x02\n      add\n      0x00\n        /* \"contracts/myContract.sol\":1288:1313  blogs[_user].exists=false */\n      0x0100\n      exp\n      dup2\n      sload\n      dup2\n      0xff\n      mul\n      not\n      and\n      swap1\n      dup4\n      iszero\n      iszero\n      mul\n      or\n      swap1\n      sstore\n      pop\n        /* \"contracts/myContract.sol\":1161:1321  function deleteBlogs(address _user, address _adminAddr) public {... */\n      pop\n      pop\n      jump\t// out\n        /* \"contracts/myContract.sol\":699:880  function writeBlog(string memory title, string memory body, address _user) public{... */\n    tag_20:\n        /* \"contracts/myContract.sol\":798:803  users */\n      0x00\n        /* \"contracts/myContract.sol\":798:810  users[_user] */\n      dup1\n        /* \"contracts/myContract.sol\":804:809  _user */\n      dup3\n        /* \"contracts/myContract.sol\":798:810  users[_user] */\n      0xffffffffffffffffffffffffffffffffffffffff\n      and\n      0xffffffffffffffffffffffffffffffffffffffff\n      and\n      dup2\n      mstore\n      0x20\n      add\n      swap1\n      dup2\n      mstore\n      0x20\n      add\n      0x00\n      keccak256\n        /* \"contracts/myContract.sol\":798:821  users[_user].registered */\n      0x01\n      add\n      0x00\n      swap1\n      sload\n      swap1\n      0x0100\n      exp\n      swap1\n      div\n      0xff\n      and\n        /* \"contracts/myContract.sol\":791:822  assert(users[_user].registered) */\n      tag_40\n      jumpi\n      tag_41\n      tag_42\n      jump\t// in\n    tag_41:\n    tag_40:\n        /* \"contracts/myContract.sol\":849:872  Blog(title, body, true) */\n      mload(0x40)\n      dup1\n      0x60\n      add\n      0x40\n      mstore\n      dup1\n        /* \"contracts/myContract.sol\":854:859  title */\n      dup5\n        /* \"contracts/myContract.sol\":849:872  Blog(title, body, true) */\n      dup2\n      mstore\n      0x20\n      add\n        /* \"contracts/myContract.sol\":861:865  body */\n      dup4\n        /* \"contracts/myContract.sol\":849:872  Blog(title, body, true) */\n      dup2\n      mstore\n      0x20\n      add\n        /* \"contracts/myContract.sol\":867:871  true */\n      0x01\n        /* \"contracts/myContract.sol\":849:872  Blog(title, body, true) */\n      iszero\n      iszero\n      dup2\n      mstore\n      pop\n        /* \"contracts/myContract.sol\":833:838  blogs */\n      0x01\n        /* \"contracts/myContract.sol\":833:845  blogs[_user] */\n      0x00\n        /* \"contracts/myContract.sol\":839:844  _user */\n      dup4\n        /* \"contracts/myContract.sol\":833:845  blogs[_user] */\n      0xffffffffffffffffffffffffffffffffffffffff\n      and\n      0xffffffffffffffffffffffffffffffffffffffff\n      and\n      dup2\n      mstore\n      0x20\n      add\n      swap1\n      dup2\n      mstore\n      0x20\n      add\n      0x00\n      keccak256\n        /* \"contracts/myContract.sol\":833:873  blogs[_user] = (Blog(title, body, true)) */\n      0x00\n      dup3\n      add\n      mload\n      dup2\n      0x00\n      add\n      swap1\n      dup2\n      tag_43\n      swap2\n      swap1\n      tag_32\n      jump\t// in\n    tag_43:\n      pop\n      0x20\n      dup3\n      add\n      mload\n      dup2\n      0x01\n      add\n      swap1\n      dup2\n      tag_44\n      swap2\n      swap1\n      tag_32\n      jump\t// in\n    tag_44:\n      pop\n      0x40\n      dup3\n      add\n      mload\n      dup2\n      0x02\n      add\n      exp(0x0100, 0x00)\n      dup2\n      sload\n      dup2\n      0xff\n      mul\n      not\n      and\n      swap1\n      dup4\n      iszero\n      iszero\n      mul\n      or\n      swap1\n      sstore\n      pop\n      swap1\n      pop\n      pop\n        /* \"contracts/myContract.sol\":699:880  function writeBlog(string memory title, string memory body, address _user) public{... */\n      pop\n      pop\n      pop\n      jump\t// out\n        /* \"contracts/myContract.sol\":887:1046  function viewBlog(address _user) public view returns(Blog memory){... */\n    tag_24:\n        /* \"contracts/myContract.sol\":940:951  Blog memory */\n      tag_45\n      tag_46\n      jump\t// in\n    tag_45:\n        /* \"contracts/myContract.sol\":963:968  blogs */\n      0x01\n        /* \"contracts/myContract.sol\":963:975  blogs[_user] */\n      0x00\n        /* \"contracts/myContract.sol\":969:974  _user */\n      dup4\n        /* \"contracts/myContract.sol\":963:975  blogs[_user] */\n      0xffffffffffffffffffffffffffffffffffffffff\n      and\n      0xffffffffffffffffffffffffffffffffffffffff\n      and\n      dup2\n      mstore\n      0x20\n      add\n      swap1\n      dup2\n      mstore\n      0x20\n      add\n      0x00\n      keccak256\n        /* \"contracts/myContract.sol\":963:982  blogs[_user].exists */\n      0x02\n      add\n      0x00\n      swap1\n      sload\n      swap1\n      0x0100\n      exp\n      swap1\n      div\n      0xff\n      and\n        /* \"contracts/myContract.sol\":959:1013  if(!blogs[_user].exists) revert(\"Blog doesn't exists\") */\n      tag_48\n      jumpi\n        /* \"contracts/myContract.sol\":984:1013  revert(\"Blog doesn't exists\") */\n      mload(0x40)\n      0x08c379a000000000000000000000000000000000000000000000000000000000\n      dup2\n      mstore\n      0x04\n      add\n      tag_49\n      swap1\n      tag_50\n      jump\t// in\n    tag_49:\n      mload(0x40)\n      dup1\n      swap2\n      sub\n      swap1\n      revert\n        /* \"contracts/myContract.sol\":959:1013  if(!blogs[_user].exists) revert(\"Blog doesn't exists\") */\n    tag_48:\n        /* \"contracts/myContract.sol\":1027:1032  blogs */\n      0x01\n        /* \"contracts/myContract.sol\":1027:1039  blogs[_user] */\n      0x00\n        /* \"contracts/myContract.sol\":1033:1038  _user */\n      dup4\n        /* \"contracts/myContract.sol\":1027:1039  blogs[_user] */\n      0xffffffffffffffffffffffffffffffffffffffff\n      and\n      0xffffffffffffffffffffffffffffffffffffffff\n      and\n      dup2\n      mstore\n      0x20\n      add\n      swap1\n      dup2\n      mstore\n      0x20\n      add\n      0x00\n      keccak256\n        /* \"contracts/myContract.sol\":1020:1039  return blogs[_user] */\n      mload(0x40)\n      dup1\n      0x60\n      add\n      0x40\n      mstore\n      swap1\n      dup2\n      0x00\n      dup3\n      add\n      dup1\n      sload\n      tag_51\n      swap1\n      tag_52\n      jump\t// in\n    tag_51:\n      dup1\n      0x1f\n      add\n      0x20\n      dup1\n      swap2\n      div\n      mul\n      0x20\n      add\n      mload(0x40)\n      swap1\n      dup2\n      add\n      0x40\n      mstore\n      dup1\n      swap3\n      swap2\n      swap1\n      dup2\n      dup2\n      mstore\n      0x20\n      add\n      dup3\n      dup1\n      sload\n      tag_53\n      swap1\n      tag_52\n      jump\t// in\n    tag_53:\n      dup1\n      iszero\n      tag_54\n      jumpi\n      dup1\n      0x1f\n      lt\n      tag_55\n      jumpi\n      0x0100\n      dup1\n      dup4\n      sload\n      div\n      mul\n      dup4\n      mstore\n      swap2\n      0x20\n      add\n      swap2\n      jump(tag_54)\n    tag_55:\n      dup3\n      add\n      swap2\n      swap1\n      0x00\n      mstore\n      keccak256(0x00, 0x20)\n      swap1\n    tag_56:\n      dup2\n      sload\n      dup2\n      mstore\n      swap1\n      0x01\n      add\n      swap1\n      0x20\n      add\n      dup1\n      dup4\n      gt\n      tag_56\n      jumpi\n      dup3\n      swap1\n      sub\n      0x1f\n      and\n      dup3\n      add\n      swap2\n    tag_54:\n      pop\n      pop\n      pop\n      pop\n      pop\n      dup2\n      mstore\n      0x20\n      add\n      0x01\n      dup3\n      add\n      dup1\n      sload\n      tag_57\n      swap1\n      tag_52\n      jump\t// in\n    tag_57:\n      dup1\n      0x1f\n      add\n      0x20\n      dup1\n      swap2\n      div\n      mul\n      0x20\n      add\n      mload(0x40)\n      swap1\n      dup2\n      add\n      0x40\n      mstore\n      dup1\n      swap3\n      swap2\n      swap1\n      dup2\n      dup2\n      mstore\n      0x20\n      add\n      dup3\n      dup1\n      sload\n      tag_58\n      swap1\n      tag_52\n      jump\t// in\n    tag_58:\n      dup1\n      iszero\n      tag_59\n      jumpi\n      dup1\n      0x1f\n      lt\n      tag_60\n      jumpi\n      0x0100\n      dup1\n      dup4\n      sload\n      div\n      mul\n      dup4\n      mstore\n      swap2\n      0x20\n      add\n      swap2\n      jump(tag_59)\n    tag_60:\n      dup3\n      add\n      swap2\n      swap1\n      0x00\n      mstore\n      keccak256(0x00, 0x20)\n      swap1\n    tag_61:\n      dup2\n      sload\n      dup2\n      mstore\n      swap1\n      0x01\n      add\n      swap1\n      0x20\n      add\n      dup1\n      dup4\n      gt\n      tag_61\n      jumpi\n      dup3\n      swap1\n      sub\n      0x1f\n      and\n      dup3\n      add\n      swap2\n    tag_59:\n      pop\n      pop\n      pop\n      pop\n      pop\n      dup2\n      mstore\n      0x20\n      add\n      0x02\n      dup3\n      add\n      0x00\n      swap1\n      sload\n      swap1\n      0x0100\n      exp\n      swap1\n      div\n      0xff\n      and\n      iszero\n      iszero\n      iszero\n      iszero\n      dup2\n      mstore\n      pop\n      pop\n      swap1\n      pop\n        /* \"contracts/myContract.sol\":887:1046  function viewBlog(address _user) public view returns(Blog memory){... */\n      swap2\n      swap1\n      pop\n      jump\t// out\n    tag_46:\n      mload(0x40)\n      dup1\n      0x60\n      add\n      0x40\n      mstore\n      dup1\n      0x60\n      dup2\n      mstore\n      0x20\n      add\n      0x60\n      dup2\n      mstore\n      0x20\n      add\n      iszero(iszero(0x00))\n      dup2\n      mstore\n      pop\n      swap1\n      jump\t// out\n        /* \"#utility.yul\":7:82   */\n    tag_62:\n        /* \"#utility.yul\":40:46   */\n      0x00\n        /* \"#utility.yul\":73:75   */\n      0x40\n        /* \"#utility.yul\":67:76   */\n      mload\n        /* \"#utility.yul\":57:76   */\n      swap1\n      pop\n        /* \"#utility.yul\":7:82   */\n      swap1\n      jump\t// out\n        /* \"#utility.yul\":88:205   */\n    tag_63:\n        /* \"#utility.yul\":197:198   */\n      0x00\n        /* \"#utility.yul\":194:195   */\n      dup1\n        /* \"#utility.yul\":187:199   */\n      revert\n        /* \"#utility.yul\":211:328   */\n    tag_64:\n        /* \"#utility.yul\":320:321   */\n      0x00\n        /* \"#utility.yul\":317:318   */\n      dup1\n        /* \"#utility.yul\":310:322   */\n      revert\n        /* \"#utility.yul\":334:451   */\n    tag_65:\n        /* \"#utility.yul\":443:444   */\n      0x00\n        /* \"#utility.yul\":440:441   */\n      dup1\n        /* \"#utility.yul\":433:445   */\n      revert\n        /* \"#utility.yul\":457:574   */\n    tag_66:\n        /* \"#utility.yul\":566:567   */\n      0x00\n        /* \"#utility.yul\":563:564   */\n      dup1\n        /* \"#utility.yul\":556:568   */\n      revert\n        /* \"#utility.yul\":580:682   */\n    tag_67:\n        /* \"#utility.yul\":621:627   */\n      0x00\n        /* \"#utility.yul\":672:674   */\n      0x1f\n        /* \"#utility.yul\":668:675   */\n      not\n        /* \"#utility.yul\":663:665   */\n      0x1f\n        /* \"#utility.yul\":656:661   */\n      dup4\n        /* \"#utility.yul\":652:666   */\n      add\n        /* \"#utility.yul\":648:676   */\n      and\n        /* \"#utility.yul\":638:676   */\n      swap1\n      pop\n        /* \"#utility.yul\":580:682   */\n      swap2\n      swap1\n      pop\n      jump\t// out\n        /* \"#utility.yul\":688:868   */\n    tag_68:\n        /* \"#utility.yul\":736:813   */\n      0x4e487b7100000000000000000000000000000000000000000000000000000000\n        /* \"#utility.yul\":733:734   */\n      0x00\n        /* \"#utility.yul\":726:814   */\n      mstore\n        /* \"#utility.yul\":833:837   */\n      0x41\n        /* \"#utility.yul\":830:831   */\n      0x04\n        /* \"#utility.yul\":823:838   */\n      mstore\n        /* \"#utility.yul\":857:861   */\n      0x24\n        /* \"#utility.yul\":854:855   */\n      0x00\n        /* \"#utility.yul\":847:862   */\n      revert\n        /* \"#utility.yul\":874:1155   */\n    tag_69:\n        /* \"#utility.yul\":957:984   */\n      tag_124\n        /* \"#utility.yul\":979:983   */\n      dup3\n        /* \"#utility.yul\":957:984   */\n      tag_67\n      jump\t// in\n    tag_124:\n        /* \"#utility.yul\":949:955   */\n      dup2\n        /* \"#utility.yul\":945:985   */\n      add\n        /* \"#utility.yul\":1087:1093   */\n      dup2\n        /* \"#utility.yul\":1075:1085   */\n      dup2\n        /* \"#utility.yul\":1072:1094   */\n      lt\n        /* \"#utility.yul\":1051:1069   */\n      0xffffffffffffffff\n        /* \"#utility.yul\":1039:1049   */\n      dup3\n        /* \"#utility.yul\":1036:1070   */\n      gt\n        /* \"#utility.yul\":1033:1095   */\n      or\n        /* \"#utility.yul\":1030:1118   */\n      iszero\n      tag_125\n      jumpi\n        /* \"#utility.yul\":1098:1116   */\n      tag_126\n      tag_68\n      jump\t// in\n    tag_126:\n        /* \"#utility.yul\":1030:1118   */\n    tag_125:\n        /* \"#utility.yul\":1138:1148   */\n      dup1\n        /* \"#utility.yul\":1134:1136   */\n      0x40\n        /* \"#utility.yul\":1127:1149   */\n      mstore\n        /* \"#utility.yul\":917:1155   */\n      pop\n        /* \"#utility.yul\":874:1155   */\n      pop\n      pop\n      jump\t// out\n        /* \"#utility.yul\":1161:1290   */\n    tag_70:\n        /* \"#utility.yul\":1195:1201   */\n      0x00\n        /* \"#utility.yul\":1222:1242   */\n      tag_128\n      tag_62\n      jump\t// in\n    tag_128:\n        /* \"#utility.yul\":1212:1242   */\n      swap1\n      pop\n        /* \"#utility.yul\":1251:1284   */\n      tag_129\n        /* \"#utility.yul\":1279:1283   */\n      dup3\n        /* \"#utility.yul\":1271:1277   */\n      dup3\n        /* \"#utility.yul\":1251:1284   */\n      tag_69\n      jump\t// in\n    tag_129:\n        /* \"#utility.yul\":1161:1290   */\n      swap2\n      swap1\n      pop\n      jump\t// out\n        /* \"#utility.yul\":1296:1604   */\n    tag_71:\n        /* \"#utility.yul\":1358:1362   */\n      0x00\n        /* \"#utility.yul\":1448:1466   */\n      0xffffffffffffffff\n        /* \"#utility.yul\":1440:1446   */\n      dup3\n        /* \"#utility.yul\":1437:1467   */\n      gt\n        /* \"#utility.yul\":1434:1490   */\n      iszero\n      tag_131\n      jumpi\n        /* \"#utility.yul\":1470:1488   */\n      tag_132\n      tag_68\n      jump\t// in\n    tag_132:\n        /* \"#utility.yul\":1434:1490   */\n    tag_131:\n        /* \"#utility.yul\":1508:1537   */\n      tag_133\n        /* \"#utility.yul\":1530:1536   */\n      dup3\n        /* \"#utility.yul\":1508:1537   */\n      tag_67\n      jump\t// in\n    tag_133:\n        /* \"#utility.yul\":1500:1537   */\n      swap1\n      pop\n        /* \"#utility.yul\":1592:1596   */\n      0x20\n        /* \"#utility.yul\":1586:1590   */\n      dup2\n        /* \"#utility.yul\":1582:1597   */\n      add\n        /* \"#utility.yul\":1574:1597   */\n      swap1\n      pop\n        /* \"#utility.yul\":1296:1604   */\n      swap2\n      swap1\n      pop\n      jump\t// out\n        /* \"#utility.yul\":1610:1758   */\n    tag_72:\n        /* \"#utility.yul\":1708:1714   */\n      dup3\n        /* \"#utility.yul\":1703:1706   */\n      dup2\n        /* \"#utility.yul\":1698:1701   */\n      dup4\n        /* \"#utility.yul\":1685:1715   */\n      calldatacopy\n        /* \"#utility.yul\":1749:1750   */\n      0x00\n        /* \"#utility.yul\":1740:1746   */\n      dup4\n        /* \"#utility.yul\":1735:1738   */\n      dup4\n        /* \"#utility.yul\":1731:1747   */\n      add\n        /* \"#utility.yul\":1724:1751   */\n      mstore\n        /* \"#utility.yul\":1610:1758   */\n      pop\n      pop\n      pop\n      jump\t// out\n        /* \"#utility.yul\":1764:2189   */\n    tag_73:\n        /* \"#utility.yul\":1842:1847   */\n      0x00\n        /* \"#utility.yul\":1867:1933   */\n      tag_136\n        /* \"#utility.yul\":1883:1932   */\n      tag_137\n        /* \"#utility.yul\":1925:1931   */\n      dup5\n        /* \"#utility.yul\":1883:1932   */\n      tag_71\n      jump\t// in\n    tag_137:\n        /* \"#utility.yul\":1867:1933   */\n      tag_70\n      jump\t// in\n    tag_136:\n        /* \"#utility.yul\":1858:1933   */\n      swap1\n      pop\n        /* \"#utility.yul\":1956:1962   */\n      dup3\n        /* \"#utility.yul\":1949:1954   */\n      dup2\n        /* \"#utility.yul\":1942:1963   */\n      mstore\n        /* \"#utility.yul\":1994:1998   */\n      0x20\n        /* \"#utility.yul\":1987:1992   */\n      dup2\n        /* \"#utility.yul\":1983:1999   */\n      add\n        /* \"#utility.yul\":2032:2035   */\n      dup5\n        /* \"#utility.yul\":2023:2029   */\n      dup5\n        /* \"#utility.yul\":2018:2021   */\n      dup5\n        /* \"#utility.yul\":2014:2030   */\n      add\n        /* \"#utility.yul\":2011:2036   */\n      gt\n        /* \"#utility.yul\":2008:2120   */\n      iszero\n      tag_138\n      jumpi\n        /* \"#utility.yul\":2039:2118   */\n      tag_139\n      tag_66\n      jump\t// in\n    tag_139:\n        /* \"#utility.yul\":2008:2120   */\n    tag_138:\n        /* \"#utility.yul\":2129:2183   */\n      tag_140\n        /* \"#utility.yul\":2176:2182   */\n      dup5\n        /* \"#utility.yul\":2171:2174   */\n      dup3\n        /* \"#utility.yul\":2166:2169   */\n      dup6\n        /* \"#utility.yul\":2129:2183   */\n      tag_72\n      jump\t// in\n    tag_140:\n        /* \"#utility.yul\":1848:2189   */\n      pop\n        /* \"#utility.yul\":1764:2189   */\n      swap4\n      swap3\n      pop\n      pop\n      pop\n      jump\t// out\n        /* \"#utility.yul\":2209:2549   */\n    tag_74:\n        /* \"#utility.yul\":2265:2270   */\n      0x00\n        /* \"#utility.yul\":2314:2317   */\n      dup3\n        /* \"#utility.yul\":2307:2311   */\n      0x1f\n        /* \"#utility.yul\":2299:2305   */\n      dup4\n        /* \"#utility.yul\":2295:2312   */\n      add\n        /* \"#utility.yul\":2291:2318   */\n      slt\n        /* \"#utility.yul\":2281:2403   */\n      tag_142\n      jumpi\n        /* \"#utility.yul\":2322:2401   */\n      tag_143\n      tag_65\n      jump\t// in\n    tag_143:\n        /* \"#utility.yul\":2281:2403   */\n    tag_142:\n        /* \"#utility.yul\":2439:2445   */\n      dup2\n        /* \"#utility.yul\":2426:2446   */\n      calldataload\n        /* \"#utility.yul\":2464:2543   */\n      tag_144\n        /* \"#utility.yul\":2539:2542   */\n      dup5\n        /* \"#utility.yul\":2531:2537   */\n      dup3\n        /* \"#utility.yul\":2524:2528   */\n      0x20\n        /* \"#utility.yul\":2516:2522   */\n      dup7\n        /* \"#utility.yul\":2512:2529   */\n      add\n        /* \"#utility.yul\":2464:2543   */\n      tag_73\n      jump\t// in\n    tag_144:\n        /* \"#utility.yul\":2455:2543   */\n      swap2\n      pop\n        /* \"#utility.yul\":2271:2549   */\n      pop\n        /* \"#utility.yul\":2209:2549   */\n      swap3\n      swap2\n      pop\n      pop\n      jump\t// out\n        /* \"#utility.yul\":2555:2681   */\n    tag_75:\n        /* \"#utility.yul\":2592:2599   */\n      0x00\n        /* \"#utility.yul\":2632:2674   */\n      0xffffffffffffffffffffffffffffffffffffffff\n        /* \"#utility.yul\":2625:2630   */\n      dup3\n        /* \"#utility.yul\":2621:2675   */\n      and\n        /* \"#utility.yul\":2610:2675   */\n      swap1\n      pop\n        /* \"#utility.yul\":2555:2681   */\n      swap2\n      swap1\n      pop\n      jump\t// out\n        /* \"#utility.yul\":2687:2783   */\n    tag_76:\n        /* \"#utility.yul\":2724:2731   */\n      0x00\n        /* \"#utility.yul\":2753:2777   */\n      tag_147\n        /* \"#utility.yul\":2771:2776   */\n      dup3\n        /* \"#utility.yul\":2753:2777   */\n      tag_75\n      jump\t// in\n    tag_147:\n        /* \"#utility.yul\":2742:2777   */\n      swap1\n      pop\n        /* \"#utility.yul\":2687:2783   */\n      swap2\n      swap1\n      pop\n      jump\t// out\n        /* \"#utility.yul\":2789:2911   */\n    tag_77:\n        /* \"#utility.yul\":2862:2886   */\n      tag_149\n        /* \"#utility.yul\":2880:2885   */\n      dup2\n        /* \"#utility.yul\":2862:2886   */\n      tag_76\n      jump\t// in\n    tag_149:\n        /* \"#utility.yul\":2855:2860   */\n      dup2\n        /* \"#utility.yul\":2852:2887   */\n      eq\n        /* \"#utility.yul\":2842:2905   */\n      tag_150\n      jumpi\n        /* \"#utility.yul\":2901:2902   */\n      0x00\n        /* \"#utility.yul\":2898:2899   */\n      dup1\n        /* \"#utility.yul\":2891:2903   */\n      revert\n        /* \"#utility.yul\":2842:2905   */\n    tag_150:\n        /* \"#utility.yul\":2789:2911   */\n      pop\n      jump\t// out\n        /* \"#utility.yul\":2917:3056   */\n    tag_78:\n        /* \"#utility.yul\":2963:2968   */\n      0x00\n        /* \"#utility.yul\":3001:3007   */\n      dup2\n        /* \"#utility.yul\":2988:3008   */\n      calldataload\n        /* \"#utility.yul\":2979:3008   */\n      swap1\n      pop\n        /* \"#utility.yul\":3017:3050   */\n      tag_152\n        /* \"#utility.yul\":3044:3049   */\n      dup2\n        /* \"#utility.yul\":3017:3050   */\n      tag_77\n      jump\t// in\n    tag_152:\n        /* \"#utility.yul\":2917:3056   */\n      swap3\n      swap2\n      pop\n      pop\n      jump\t// out\n        /* \"#utility.yul\":3062:3716   */\n    tag_9:\n        /* \"#utility.yul\":3140:3146   */\n      0x00\n        /* \"#utility.yul\":3148:3154   */\n      dup1\n        /* \"#utility.yul\":3197:3199   */\n      0x40\n        /* \"#utility.yul\":3185:3194   */\n      dup4\n        /* \"#utility.yul\":3176:3183   */\n      dup6\n        /* \"#utility.yul\":3172:3195   */\n      sub\n        /* \"#utility.yul\":3168:3200   */\n      slt\n        /* \"#utility.yul\":3165:3284   */\n      iszero\n      tag_154\n      jumpi\n        /* \"#utility.yul\":3203:3282   */\n      tag_155\n      tag_63\n      jump\t// in\n    tag_155:\n        /* \"#utility.yul\":3165:3284   */\n    tag_154:\n        /* \"#utility.yul\":3351:3352   */\n      0x00\n        /* \"#utility.yul\":3340:3349   */\n      dup4\n        /* \"#utility.yul\":3336:3353   */\n      add\n        /* \"#utility.yul\":3323:3354   */\n      calldataload\n        /* \"#utility.yul\":3381:3399   */\n      0xffffffffffffffff\n        /* \"#utility.yul\":3373:3379   */\n      dup2\n        /* \"#utility.yul\":3370:3400   */\n      gt\n        /* \"#utility.yul\":3367:3484   */\n      iszero\n      tag_156\n      jumpi\n        /* \"#utility.yul\":3403:3482   */\n      tag_157\n      tag_64\n      jump\t// in\n    tag_157:\n        /* \"#utility.yul\":3367:3484   */\n    tag_156:\n        /* \"#utility.yul\":3508:3571   */\n      tag_158\n        /* \"#utility.yul\":3563:3570   */\n      dup6\n        /* \"#utility.yul\":3554:3560   */\n      dup3\n        /* \"#utility.yul\":3543:3552   */\n      dup7\n        /* \"#utility.yul\":3539:3561   */\n      add\n        /* \"#utility.yul\":3508:3571   */\n      tag_74\n      jump\t// in\n    tag_158:\n        /* \"#utility.yul\":3498:3571   */\n      swap3\n      pop\n        /* \"#utility.yul\":3294:3581   */\n      pop\n        /* \"#utility.yul\":3620:3622   */\n      0x20\n        /* \"#utility.yul\":3646:3699   */\n      tag_159\n        /* \"#utility.yul\":3691:3698   */\n      dup6\n        /* \"#utility.yul\":3682:3688   */\n      dup3\n        /* \"#utility.yul\":3671:3680   */\n      dup7\n        /* \"#utility.yul\":3667:3689   */\n      add\n        /* \"#utility.yul\":3646:3699   */\n      tag_78\n      jump\t// in\n    tag_159:\n        /* \"#utility.yul\":3636:3699   */\n      swap2\n      pop\n        /* \"#utility.yul\":3591:3709   */\n      pop\n        /* \"#utility.yul\":3062:3716   */\n      swap3\n      pop\n      swap3\n      swap1\n      pop\n      jump\t// out\n        /* \"#utility.yul\":3722:3821   */\n    tag_79:\n        /* \"#utility.yul\":3774:3780   */\n      0x00\n        /* \"#utility.yul\":3808:3813   */\n      dup2\n        /* \"#utility.yul\":3802:3814   */\n      mload\n        /* \"#utility.yul\":3792:3814   */\n      swap1\n      pop\n        /* \"#utility.yul\":3722:3821   */\n      swap2\n      swap1\n      pop\n      jump\t// out\n        /* \"#utility.yul\":3827:3996   */\n    tag_80:\n        /* \"#utility.yul\":3911:3922   */\n      0x00\n        /* \"#utility.yul\":3945:3951   */\n      dup3\n        /* \"#utility.yul\":3940:3943   */\n      dup3\n        /* \"#utility.yul\":3933:3952   */\n      mstore\n        /* \"#utility.yul\":3985:3989   */\n      0x20\n        /* \"#utility.yul\":3980:3983   */\n      dup3\n        /* \"#utility.yul\":3976:3990   */\n      add\n        /* \"#utility.yul\":3961:3990   */\n      swap1\n      pop\n        /* \"#utility.yul\":3827:3996   */\n      swap3\n      swap2\n      pop\n      pop\n      jump\t// out\n        /* \"#utility.yul\":4002:4141   */\n    tag_81:\n        /* \"#utility.yul\":4091:4097   */\n      dup3\n        /* \"#utility.yul\":4086:4089   */\n      dup2\n        /* \"#utility.yul\":4081:4084   */\n      dup4\n        /* \"#utility.yul\":4075:4098   */\n      mcopy\n        /* \"#utility.yul\":4132:4133   */\n      0x00\n        /* \"#utility.yul\":4123:4129   */\n      dup4\n        /* \"#utility.yul\":4118:4121   */\n      dup4\n        /* \"#utility.yul\":4114:4130   */\n      add\n        /* \"#utility.yul\":4107:4134   */\n      mstore\n        /* \"#utility.yul\":4002:4141   */\n      pop\n      pop\n      pop\n      jump\t// out\n        /* \"#utility.yul\":4147:4524   */\n    tag_82:\n        /* \"#utility.yul\":4235:4238   */\n      0x00\n        /* \"#utility.yul\":4263:4302   */\n      tag_164\n        /* \"#utility.yul\":4296:4301   */\n      dup3\n        /* \"#utility.yul\":4263:4302   */\n      tag_79\n      jump\t// in\n    tag_164:\n        /* \"#utility.yul\":4318:4389   */\n      tag_165\n        /* \"#utility.yul\":4382:4388   */\n      dup2\n        /* \"#utility.yul\":4377:4380   */\n      dup6\n        /* \"#utility.yul\":4318:4389   */\n      tag_80\n      jump\t// in\n    tag_165:\n        /* \"#utility.yul\":4311:4389   */\n      swap4\n      pop\n        /* \"#utility.yul\":4398:4463   */\n      tag_166\n        /* \"#utility.yul\":4456:4462   */\n      dup2\n        /* \"#utility.yul\":4451:4454   */\n      dup6\n        /* \"#utility.yul\":4444:4448   */\n      0x20\n        /* \"#utility.yul\":4437:4442   */\n      dup7\n        /* \"#utility.yul\":4433:4449   */\n      add\n        /* \"#utility.yul\":4398:4463   */\n      tag_81\n      jump\t// in\n    tag_166:\n        /* \"#utility.yul\":4488:4517   */\n      tag_167\n        /* \"#utility.yul\":4510:4516   */\n      dup2\n        /* \"#utility.yul\":4488:4517   */\n      tag_67\n      jump\t// in\n    tag_167:\n        /* \"#utility.yul\":4483:4486   */\n      dup5\n        /* \"#utility.yul\":4479:4518   */\n      add\n        /* \"#utility.yul\":4472:4518   */\n      swap2\n      pop\n        /* \"#utility.yul\":4239:4524   */\n      pop\n        /* \"#utility.yul\":4147:4524   */\n      swap3\n      swap2\n      pop\n      pop\n      jump\t// out\n        /* \"#utility.yul\":4530:4843   */\n    tag_12:\n        /* \"#utility.yul\":4643:4647   */\n      0x00\n        /* \"#utility.yul\":4681:4683   */\n      0x20\n        /* \"#utility.yul\":4670:4679   */\n      dup3\n        /* \"#utility.yul\":4666:4684   */\n      add\n        /* \"#utility.yul\":4658:4684   */\n      swap1\n      pop\n        /* \"#utility.yul\":4730:4739   */\n      dup2\n        /* \"#utility.yul\":4724:4728   */\n      dup2\n        /* \"#utility.yul\":4720:4740   */\n      sub\n        /* \"#utility.yul\":4716:4717   */\n      0x00\n        /* \"#utility.yul\":4705:4714   */\n      dup4\n        /* \"#utility.yul\":4701:4718   */\n      add\n        /* \"#utility.yul\":4694:4741   */\n      mstore\n        /* \"#utility.yul\":4758:4836   */\n      tag_169\n        /* \"#utility.yul\":4831:4835   */\n      dup2\n        /* \"#utility.yul\":4822:4828   */\n      dup5\n        /* \"#utility.yul\":4758:4836   */\n      tag_82\n      jump\t// in\n    tag_169:\n        /* \"#utility.yul\":4750:4836   */\n      swap1\n      pop\n        /* \"#utility.yul\":4530:4843   */\n      swap3\n      swap2\n      pop\n      pop\n      jump\t// out\n        /* \"#utility.yul\":4849:5323   */\n    tag_15:\n        /* \"#utility.yul\":4917:4923   */\n      0x00\n        /* \"#utility.yul\":4925:4931   */\n      dup1\n        /* \"#utility.yul\":4974:4976   */\n      0x40\n        /* \"#utility.yul\":4962:4971   */\n      dup4\n        /* \"#utility.yul\":4953:4960   */\n      dup6\n        /* \"#utility.yul\":4949:4972   */\n      sub\n        /* \"#utility.yul\":4945:4977   */\n      slt\n        /* \"#utility.yul\":4942:5061   */\n      iszero\n      tag_171\n      jumpi\n        /* \"#utility.yul\":4980:5059   */\n      tag_172\n      tag_63\n      jump\t// in\n    tag_172:\n        /* \"#utility.yul\":4942:5061   */\n    tag_171:\n        /* \"#utility.yul\":5100:5101   */\n      0x00\n        /* \"#utility.yul\":5125:5178   */\n      tag_173\n        /* \"#utility.yul\":5170:5177   */\n      dup6\n        /* \"#utility.yul\":5161:5167   */\n      dup3\n        /* \"#utility.yul\":5150:5159   */\n      dup7\n        /* \"#utility.yul\":5146:5168   */\n      add\n        /* \"#utility.yul\":5125:5178   */\n      tag_78\n      jump\t// in\n    tag_173:\n        /* \"#utility.yul\":5115:5178   */\n      swap3\n      pop\n        /* \"#utility.yul\":5071:5188   */\n      pop\n        /* \"#utility.yul\":5227:5229   */\n      0x20\n        /* \"#utility.yul\":5253:5306   */\n      tag_174\n        /* \"#utility.yul\":5298:5305   */\n      dup6\n        /* \"#utility.yul\":5289:5295   */\n      dup3\n        /* \"#utility.yul\":5278:5287   */\n      dup7\n        /* \"#utility.yul\":5274:5296   */\n      add\n        /* \"#utility.yul\":5253:5306   */\n      tag_78\n      jump\t// in\n    tag_174:\n        /* \"#utility.yul\":5243:5306   */\n      swap2\n      pop\n        /* \"#utility.yul\":5198:5316   */\n      pop\n        /* \"#utility.yul\":4849:5323   */\n      swap3\n      pop\n      swap3\n      swap1\n      pop\n      jump\t// out\n        /* \"#utility.yul\":5329:6308   */\n    tag_19:\n        /* \"#utility.yul\":5426:5432   */\n      0x00\n        /* \"#utility.yul\":5434:5440   */\n      dup1\n        /* \"#utility.yul\":5442:5448   */\n      0x00\n        /* \"#utility.yul\":5491:5493   */\n      0x60\n        /* \"#utility.yul\":5479:5488   */\n      dup5\n        /* \"#utility.yul\":5470:5477   */\n      dup7\n        /* \"#utility.yul\":5466:5489   */\n      sub\n        /* \"#utility.yul\":5462:5494   */\n      slt\n        /* \"#utility.yul\":5459:5578   */\n      iszero\n      tag_176\n      jumpi\n        /* \"#utility.yul\":5497:5576   */\n      tag_177\n      tag_63\n      jump\t// in\n    tag_177:\n        /* \"#utility.yul\":5459:5578   */\n    tag_176:\n        /* \"#utility.yul\":5645:5646   */\n      0x00\n        /* \"#utility.yul\":5634:5643   */\n      dup5\n        /* \"#utility.yul\":5630:5647   */\n      add\n        /* \"#utility.yul\":5617:5648   */\n      calldataload\n        /* \"#utility.yul\":5675:5693   */\n      0xffffffffffffffff\n        /* \"#utility.yul\":5667:5673   */\n      dup2\n        /* \"#utility.yul\":5664:5694   */\n      gt\n        /* \"#utility.yul\":5661:5778   */\n      iszero\n      tag_178\n      jumpi\n        /* \"#utility.yul\":5697:5776   */\n      tag_179\n      tag_64\n      jump\t// in\n    tag_179:\n        /* \"#utility.yul\":5661:5778   */\n    tag_178:\n        /* \"#utility.yul\":5802:5865   */\n      tag_180\n        /* \"#utility.yul\":5857:5864   */\n      dup7\n        /* \"#utility.yul\":5848:5854   */\n      dup3\n        /* \"#utility.yul\":5837:5846   */\n      dup8\n        /* \"#utility.yul\":5833:5855   */\n      add\n        /* \"#utility.yul\":5802:5865   */\n      tag_74\n      jump\t// in\n    tag_180:\n        /* \"#utility.yul\":5792:5865   */\n      swap4\n      pop\n        /* \"#utility.yul\":5588:5875   */\n      pop\n        /* \"#utility.yul\":5942:5944   */\n      0x20\n        /* \"#utility.yul\":5931:5940   */\n      dup5\n        /* \"#utility.yul\":5927:5945   */\n      add\n        /* \"#utility.yul\":5914:5946   */\n      calldataload\n        /* \"#utility.yul\":5973:5991   */\n      0xffffffffffffffff\n        /* \"#utility.yul\":5965:5971   */\n      dup2\n        /* \"#utility.yul\":5962:5992   */\n      gt\n        /* \"#utility.yul\":5959:6076   */\n      iszero\n      tag_181\n      jumpi\n        /* \"#utility.yul\":5995:6074   */\n      tag_182\n      tag_64\n      jump\t// in\n    tag_182:\n        /* \"#utility.yul\":5959:6076   */\n    tag_181:\n        /* \"#utility.yul\":6100:6163   */\n      tag_183\n        /* \"#utility.yul\":6155:6162   */\n      dup7\n        /* \"#utility.yul\":6146:6152   */\n      dup3\n        /* \"#utility.yul\":6135:6144   */\n      dup8\n        /* \"#utility.yul\":6131:6153   */\n      add\n        /* \"#utility.yul\":6100:6163   */\n      tag_74\n      jump\t// in\n    tag_183:\n        /* \"#utility.yul\":6090:6163   */\n      swap3\n      pop\n        /* \"#utility.yul\":5885:6173   */\n      pop\n        /* \"#utility.yul\":6212:6214   */\n      0x40\n        /* \"#utility.yul\":6238:6291   */\n      tag_184\n        /* \"#utility.yul\":6283:6290   */\n      dup7\n        /* \"#utility.yul\":6274:6280   */\n      dup3\n        /* \"#utility.yul\":6263:6272   */\n      dup8\n        /* \"#utility.yul\":6259:6281   */\n      add\n        /* \"#utility.yul\":6238:6291   */\n      tag_78\n      jump\t// in\n    tag_184:\n        /* \"#utility.yul\":6228:6291   */\n      swap2\n      pop\n        /* \"#utility.yul\":6183:6301   */\n      pop\n        /* \"#utility.yul\":5329:6308   */\n      swap3\n      pop\n      swap3\n      pop\n      swap3\n      jump\t// out\n        /* \"#utility.yul\":6314:6643   */\n    tag_23:\n        /* \"#utility.yul\":6373:6379   */\n      0x00\n        /* \"#utility.yul\":6422:6424   */\n      0x20\n        /* \"#utility.yul\":6410:6419   */\n      dup3\n        /* \"#utility.yul\":6401:6408   */\n      dup5\n        /* \"#utility.yul\":6397:6420   */\n      sub\n        /* \"#utility.yul\":6393:6425   */\n      slt\n        /* \"#utility.yul\":6390:6509   */\n      iszero\n      tag_186\n      jumpi\n        /* \"#utility.yul\":6428:6507   */\n      tag_187\n      tag_63\n      jump\t// in\n    tag_187:\n        /* \"#utility.yul\":6390:6509   */\n    tag_186:\n        /* \"#utility.yul\":6548:6549   */\n      0x00\n        /* \"#utility.yul\":6573:6626   */\n      tag_188\n        /* \"#utility.yul\":6618:6625   */\n      dup5\n        /* \"#utility.yul\":6609:6615   */\n      dup3\n        /* \"#utility.yul\":6598:6607   */\n      dup6\n        /* \"#utility.yul\":6594:6616   */\n      add\n        /* \"#utility.yul\":6573:6626   */\n      tag_78\n      jump\t// in\n    tag_188:\n        /* \"#utility.yul\":6563:6626   */\n      swap2\n      pop\n        /* \"#utility.yul\":6519:6636   */\n      pop\n        /* \"#utility.yul\":6314:6643   */\n      swap3\n      swap2\n      pop\n      pop\n      jump\t// out\n        /* \"#utility.yul\":6649:6808   */\n    tag_83:\n        /* \"#utility.yul\":6723:6734   */\n      0x00\n        /* \"#utility.yul\":6757:6763   */\n      dup3\n        /* \"#utility.yul\":6752:6755   */\n      dup3\n        /* \"#utility.yul\":6745:6764   */\n      mstore\n        /* \"#utility.yul\":6797:6801   */\n      0x20\n        /* \"#utility.yul\":6792:6795   */\n      dup3\n        /* \"#utility.yul\":6788:6802   */\n      add\n        /* \"#utility.yul\":6773:6802   */\n      swap1\n      pop\n        /* \"#utility.yul\":6649:6808   */\n      swap3\n      swap2\n      pop\n      pop\n      jump\t// out\n        /* \"#utility.yul\":6814:7171   */\n    tag_84:\n        /* \"#utility.yul\":6892:6895   */\n      0x00\n        /* \"#utility.yul\":6920:6959   */\n      tag_191\n        /* \"#utility.yul\":6953:6958   */\n      dup3\n        /* \"#utility.yul\":6920:6959   */\n      tag_79\n      jump\t// in\n    tag_191:\n        /* \"#utility.yul\":6975:7036   */\n      tag_192\n        /* \"#utility.yul\":7029:7035   */\n      dup2\n        /* \"#utility.yul\":7024:7027   */\n      dup6\n        /* \"#utility.yul\":6975:7036   */\n      tag_83\n      jump\t// in\n    tag_192:\n        /* \"#utility.yul\":6968:7036   */\n      swap4\n      pop\n        /* \"#utility.yul\":7045:7110   */\n      tag_193\n        /* \"#utility.yul\":7103:7109   */\n      dup2\n        /* \"#utility.yul\":7098:7101   */\n      dup6\n        /* \"#utility.yul\":7091:7095   */\n      0x20\n        /* \"#utility.yul\":7084:7089   */\n      dup7\n        /* \"#utility.yul\":7080:7096   */\n      add\n        /* \"#utility.yul\":7045:7110   */\n      tag_81\n      jump\t// in\n    tag_193:\n        /* \"#utility.yul\":7135:7164   */\n      tag_194\n        /* \"#utility.yul\":7157:7163   */\n      dup2\n        /* \"#utility.yul\":7135:7164   */\n      tag_67\n      jump\t// in\n    tag_194:\n        /* \"#utility.yul\":7130:7133   */\n      dup5\n        /* \"#utility.yul\":7126:7165   */\n      add\n        /* \"#utility.yul\":7119:7165   */\n      swap2\n      pop\n        /* \"#utility.yul\":6896:7171   */\n      pop\n        /* \"#utility.yul\":6814:7171   */\n      swap3\n      swap2\n      pop\n      pop\n      jump\t// out\n        /* \"#utility.yul\":7177:7267   */\n    tag_85:\n        /* \"#utility.yul\":7211:7218   */\n      0x00\n        /* \"#utility.yul\":7254:7259   */\n      dup2\n        /* \"#utility.yul\":7247:7260   */\n      iszero\n        /* \"#utility.yul\":7240:7261   */\n      iszero\n        /* \"#utility.yul\":7229:7261   */\n      swap1\n      pop\n        /* \"#utility.yul\":7177:7267   */\n      swap2\n      swap1\n      pop\n      jump\t// out\n        /* \"#utility.yul\":7273:7372   */\n    tag_86:\n        /* \"#utility.yul\":7344:7365   */\n      tag_197\n        /* \"#utility.yul\":7359:7364   */\n      dup2\n        /* \"#utility.yul\":7344:7365   */\n      tag_85\n      jump\t// in\n    tag_197:\n        /* \"#utility.yul\":7339:7342   */\n      dup3\n        /* \"#utility.yul\":7332:7366   */\n      mstore\n        /* \"#utility.yul\":7273:7372   */\n      pop\n      pop\n      jump\t// out\n        /* \"#utility.yul\":7436:8272   */\n    tag_87:\n        /* \"#utility.yul\":7543:7546   */\n      0x00\n        /* \"#utility.yul\":7579:7583   */\n      0x60\n        /* \"#utility.yul\":7574:7577   */\n      dup4\n        /* \"#utility.yul\":7570:7584   */\n      add\n        /* \"#utility.yul\":7667:7671   */\n      0x00\n        /* \"#utility.yul\":7660:7665   */\n      dup4\n        /* \"#utility.yul\":7656:7672   */\n      add\n        /* \"#utility.yul\":7650:7673   */\n      mload\n        /* \"#utility.yul\":7720:7723   */\n      dup5\n        /* \"#utility.yul\":7714:7718   */\n      dup3\n        /* \"#utility.yul\":7710:7724   */\n      sub\n        /* \"#utility.yul\":7703:7707   */\n      0x00\n        /* \"#utility.yul\":7698:7701   */\n      dup7\n        /* \"#utility.yul\":7694:7708   */\n      add\n        /* \"#utility.yul\":7687:7725   */\n      mstore\n        /* \"#utility.yul\":7746:7819   */\n      tag_199\n        /* \"#utility.yul\":7814:7818   */\n      dup3\n        /* \"#utility.yul\":7800:7812   */\n      dup3\n        /* \"#utility.yul\":7746:7819   */\n      tag_84\n      jump\t// in\n    tag_199:\n        /* \"#utility.yul\":7738:7819   */\n      swap2\n      pop\n        /* \"#utility.yul\":7594:7830   */\n      pop\n        /* \"#utility.yul\":7912:7916   */\n      0x20\n        /* \"#utility.yul\":7905:7910   */\n      dup4\n        /* \"#utility.yul\":7901:7917   */\n      add\n        /* \"#utility.yul\":7895:7918   */\n      mload\n        /* \"#utility.yul\":7965:7968   */\n      dup5\n        /* \"#utility.yul\":7959:7963   */\n      dup3\n        /* \"#utility.yul\":7955:7969   */\n      sub\n        /* \"#utility.yul\":7948:7952   */\n      0x20\n        /* \"#utility.yul\":7943:7946   */\n      dup7\n        /* \"#utility.yul\":7939:7953   */\n      add\n        /* \"#utility.yul\":7932:7970   */\n      mstore\n        /* \"#utility.yul\":7991:8064   */\n      tag_200\n        /* \"#utility.yul\":8059:8063   */\n      dup3\n        /* \"#utility.yul\":8045:8057   */\n      dup3\n        /* \"#utility.yul\":7991:8064   */\n      tag_84\n      jump\t// in\n    tag_200:\n        /* \"#utility.yul\":7983:8064   */\n      swap2\n      pop\n        /* \"#utility.yul\":7840:8075   */\n      pop\n        /* \"#utility.yul\":8159:8163   */\n      0x40\n        /* \"#utility.yul\":8152:8157   */\n      dup4\n        /* \"#utility.yul\":8148:8164   */\n      add\n        /* \"#utility.yul\":8142:8165   */\n      mload\n        /* \"#utility.yul\":8178:8235   */\n      tag_201\n        /* \"#utility.yul\":8229:8233   */\n      0x40\n        /* \"#utility.yul\":8224:8227   */\n      dup7\n        /* \"#utility.yul\":8220:8234   */\n      add\n        /* \"#utility.yul\":8206:8218   */\n      dup3\n        /* \"#utility.yul\":8178:8235   */\n      tag_86\n      jump\t// in\n    tag_201:\n        /* \"#utility.yul\":8085:8245   */\n      pop\n        /* \"#utility.yul\":8262:8266   */\n      dup1\n        /* \"#utility.yul\":8255:8266   */\n      swap2\n      pop\n        /* \"#utility.yul\":7548:8272   */\n      pop\n        /* \"#utility.yul\":7436:8272   */\n      swap3\n      swap2\n      pop\n      pop\n      jump\t// out\n        /* \"#utility.yul\":8278:8627   */\n    tag_26:\n        /* \"#utility.yul\":8409:8413   */\n      0x00\n        /* \"#utility.yul\":8447:8449   */\n      0x20\n        /* \"#utility.yul\":8436:8445   */\n      dup3\n        /* \"#utility.yul\":8432:8450   */\n      add\n        /* \"#utility.yul\":8424:8450   */\n      swap1\n      pop\n        /* \"#utility.yul\":8496:8505   */\n      dup2\n        /* \"#utility.yul\":8490:8494   */\n      dup2\n        /* \"#utility.yul\":8486:8506   */\n      sub\n        /* \"#utility.yul\":8482:8483   */\n      0x00\n        /* \"#utility.yul\":8471:8480   */\n      dup4\n        /* \"#utility.yul\":8467:8484   */\n      add\n        /* \"#utility.yul\":8460:8507   */\n      mstore\n        /* \"#utility.yul\":8524:8620   */\n      tag_203\n        /* \"#utility.yul\":8615:8619   */\n      dup2\n        /* \"#utility.yul\":8606:8612   */\n      dup5\n        /* \"#utility.yul\":8524:8620   */\n      tag_87\n      jump\t// in\n    tag_203:\n        /* \"#utility.yul\":8516:8620   */\n      swap1\n      pop\n        /* \"#utility.yul\":8278:8627   */\n      swap3\n      swap2\n      pop\n      pop\n      jump\t// out\n        /* \"#utility.yul\":8633:8801   */\n    tag_88:\n        /* \"#utility.yul\":8773:8793   */\n      0x416c726561647920726567697374657265640000000000000000000000000000\n        /* \"#utility.yul\":8769:8770   */\n      0x00\n        /* \"#utility.yul\":8761:8767   */\n      dup3\n        /* \"#utility.yul\":8757:8771   */\n      add\n        /* \"#utility.yul\":8750:8794   */\n      mstore\n        /* \"#utility.yul\":8633:8801   */\n      pop\n      jump\t// out\n        /* \"#utility.yul\":8807:9173   */\n    tag_89:\n        /* \"#utility.yul\":8949:8952   */\n      0x00\n        /* \"#utility.yul\":8970:9037   */\n      tag_206\n        /* \"#utility.yul\":9034:9036   */\n      0x12\n        /* \"#utility.yul\":9029:9032   */\n      dup4\n        /* \"#utility.yul\":8970:9037   */\n      tag_80\n      jump\t// in\n    tag_206:\n        /* \"#utility.yul\":8963:9037   */\n      swap2\n      pop\n        /* \"#utility.yul\":9046:9139   */\n      tag_207\n        /* \"#utility.yul\":9135:9138   */\n      dup3\n        /* \"#utility.yul\":9046:9139   */\n      tag_88\n      jump\t// in\n    tag_207:\n        /* \"#utility.yul\":9164:9166   */\n      0x20\n        /* \"#utility.yul\":9159:9162   */\n      dup3\n        /* \"#utility.yul\":9155:9167   */\n      add\n        /* \"#utility.yul\":9148:9167   */\n      swap1\n      pop\n        /* \"#utility.yul\":8807:9173   */\n      swap2\n      swap1\n      pop\n      jump\t// out\n        /* \"#utility.yul\":9179:9598   */\n    tag_30:\n        /* \"#utility.yul\":9345:9349   */\n      0x00\n        /* \"#utility.yul\":9383:9385   */\n      0x20\n        /* \"#utility.yul\":9372:9381   */\n      dup3\n        /* \"#utility.yul\":9368:9386   */\n      add\n        /* \"#utility.yul\":9360:9386   */\n      swap1\n      pop\n        /* \"#utility.yul\":9432:9441   */\n      dup2\n        /* \"#utility.yul\":9426:9430   */\n      dup2\n        /* \"#utility.yul\":9422:9442   */\n      sub\n        /* \"#utility.yul\":9418:9419   */\n      0x00\n        /* \"#utility.yul\":9407:9416   */\n      dup4\n        /* \"#utility.yul\":9403:9420   */\n      add\n        /* \"#utility.yul\":9396:9443   */\n      mstore\n        /* \"#utility.yul\":9460:9591   */\n      tag_209\n        /* \"#utility.yul\":9586:9590   */\n      dup2\n        /* \"#utility.yul\":9460:9591   */\n      tag_89\n      jump\t// in\n    tag_209:\n        /* \"#utility.yul\":9452:9591   */\n      swap1\n      pop\n        /* \"#utility.yul\":9179:9598   */\n      swap2\n      swap1\n      pop\n      jump\t// out\n        /* \"#utility.yul\":9604:9784   */\n    tag_90:\n        /* \"#utility.yul\":9652:9729   */\n      0x4e487b7100000000000000000000000000000000000000000000000000000000\n        /* \"#utility.yul\":9649:9650   */\n      0x00\n        /* \"#utility.yul\":9642:9730   */\n      mstore\n        /* \"#utility.yul\":9749:9753   */\n      0x22\n        /* \"#utility.yul\":9746:9747   */\n      0x04\n        /* \"#utility.yul\":9739:9754   */\n      mstore\n        /* \"#utility.yul\":9773:9777   */\n      0x24\n        /* \"#utility.yul\":9770:9771   */\n      0x00\n        /* \"#utility.yul\":9763:9778   */\n      revert\n        /* \"#utility.yul\":9790:10110   */\n    tag_52:\n        /* \"#utility.yul\":9834:9840   */\n      0x00\n        /* \"#utility.yul\":9871:9872   */\n      0x02\n        /* \"#utility.yul\":9865:9869   */\n      dup3\n        /* \"#utility.yul\":9861:9873   */\n      div\n        /* \"#utility.yul\":9851:9873   */\n      swap1\n      pop\n        /* \"#utility.yul\":9918:9919   */\n      0x01\n        /* \"#utility.yul\":9912:9916   */\n      dup3\n        /* \"#utility.yul\":9908:9920   */\n      and\n        /* \"#utility.yul\":9939:9957   */\n      dup1\n        /* \"#utility.yul\":9929:10010   */\n      tag_212\n      jumpi\n        /* \"#utility.yul\":9995:9999   */\n      0x7f\n        /* \"#utility.yul\":9987:9993   */\n      dup3\n        /* \"#utility.yul\":9983:10000   */\n      and\n        /* \"#utility.yul\":9973:10000   */\n      swap2\n      pop\n        /* \"#utility.yul\":9929:10010   */\n    tag_212:\n        /* \"#utility.yul\":10057:10059   */\n      0x20\n        /* \"#utility.yul\":10049:10055   */\n      dup3\n        /* \"#utility.yul\":10046:10060   */\n      lt\n        /* \"#utility.yul\":10026:10044   */\n      dup2\n        /* \"#utility.yul\":10023:10061   */\n      sub\n        /* \"#utility.yul\":10020:10104   */\n      tag_213\n      jumpi\n        /* \"#utility.yul\":10076:10094   */\n      tag_214\n      tag_90\n      jump\t// in\n    tag_214:\n        /* \"#utility.yul\":10020:10104   */\n    tag_213:\n        /* \"#utility.yul\":9841:10110   */\n      pop\n        /* \"#utility.yul\":9790:10110   */\n      swap2\n      swap1\n      pop\n      jump\t// out\n        /* \"#utility.yul\":10116:10257   */\n    tag_91:\n        /* \"#utility.yul\":10165:10169   */\n      0x00\n        /* \"#utility.yul\":10188:10191   */\n      dup2\n        /* \"#utility.yul\":10180:10191   */\n      swap1\n      pop\n        /* \"#utility.yul\":10211:10214   */\n      dup2\n        /* \"#utility.yul\":10208:10209   */\n      0x00\n        /* \"#utility.yul\":10201:10215   */\n      mstore\n        /* \"#utility.yul\":10245:10249   */\n      0x20\n        /* \"#utility.yul\":10242:10243   */\n      0x00\n        /* \"#utility.yul\":10232:10250   */\n      keccak256\n        /* \"#utility.yul\":10224:10250   */\n      swap1\n      pop\n        /* \"#utility.yul\":10116:10257   */\n      swap2\n      swap1\n      pop\n      jump\t// out\n        /* \"#utility.yul\":10263:10356   */\n    tag_92:\n        /* \"#utility.yul\":10300:10306   */\n      0x00\n        /* \"#utility.yul\":10347:10349   */\n      0x20\n        /* \"#utility.yul\":10342:10344   */\n      0x1f\n        /* \"#utility.yul\":10335:10340   */\n      dup4\n        /* \"#utility.yul\":10331:10345   */\n      add\n        /* \"#utility.yul\":10327:10350   */\n      div\n        /* \"#utility.yul\":10317:10350   */\n      swap1\n      pop\n        /* \"#utility.yul\":10263:10356   */\n      swap2\n      swap1\n      pop\n      jump\t// out\n        /* \"#utility.yul\":10362:10469   */\n    tag_93:\n        /* \"#utility.yul\":10406:10414   */\n      0x00\n        /* \"#utility.yul\":10456:10461   */\n      dup3\n        /* \"#utility.yul\":10450:10454   */\n      dup3\n        /* \"#utility.yul\":10446:10462   */\n      shl\n        /* \"#utility.yul\":10425:10462   */\n      swap1\n      pop\n        /* \"#utility.yul\":10362:10469   */\n      swap3\n      swap2\n      pop\n      pop\n      jump\t// out\n        /* \"#utility.yul\":10475:10868   */\n    tag_94:\n        /* \"#utility.yul\":10544:10550   */\n      0x00\n        /* \"#utility.yul\":10594:10595   */\n      0x08\n        /* \"#utility.yul\":10582:10592   */\n      dup4\n        /* \"#utility.yul\":10578:10596   */\n      mul\n        /* \"#utility.yul\":10617:10714   */\n      tag_219\n        /* \"#utility.yul\":10647:10713   */\n      0xffffffffffffffffffffffffffffffffffffffffffffffffffffffffffffffff\n        /* \"#utility.yul\":10636:10645   */\n      dup3\n        /* \"#utility.yul\":10617:10714   */\n      tag_93\n      jump\t// in\n    tag_219:\n        /* \"#utility.yul\":10735:10774   */\n      tag_220\n        /* \"#utility.yul\":10765:10773   */\n      dup7\n        /* \"#utility.yul\":10754:10763   */\n      dup4\n        /* \"#utility.yul\":10735:10774   */\n      tag_93\n      jump\t// in\n    tag_220:\n        /* \"#utility.yul\":10723:10774   */\n      swap6\n      pop\n        /* \"#utility.yul\":10807:10811   */\n      dup1\n        /* \"#utility.yul\":10803:10812   */\n      not\n        /* \"#utility.yul\":10796:10801   */\n      dup5\n        /* \"#utility.yul\":10792:10813   */\n      and\n        /* \"#utility.yul\":10783:10813   */\n      swap4\n      pop\n        /* \"#utility.yul\":10856:10860   */\n      dup1\n        /* \"#utility.yul\":10846:10854   */\n      dup7\n        /* \"#utility.yul\":10842:10861   */\n      and\n        /* \"#utility.yul\":10835:10840   */\n      dup5\n        /* \"#utility.yul\":10832:10862   */\n      or\n        /* \"#utility.yul\":10822:10862   */\n      swap3\n      pop\n        /* \"#utility.yul\":10551:10868   */\n      pop\n      pop\n        /* \"#utility.yul\":10475:10868   */\n      swap4\n      swap3\n      pop\n      pop\n      pop\n      jump\t// out\n        /* \"#utility.yul\":10874:10951   */\n    tag_95:\n        /* \"#utility.yul\":10911:10918   */\n      0x00\n        /* \"#utility.yul\":10940:10945   */\n      dup2\n        /* \"#utility.yul\":10929:10945   */\n      swap1\n      pop\n        /* \"#utility.yul\":10874:10951   */\n      swap2\n      swap1\n      pop\n      jump\t// out\n        /* \"#utility.yul\":10957:11017   */\n    tag_96:\n        /* \"#utility.yul\":10985:10988   */\n      0x00\n        /* \"#utility.yul\":11006:11011   */\n      dup2\n        /* \"#utility.yul\":10999:11011   */\n      swap1\n      pop\n        /* \"#utility.yul\":10957:11017   */\n      swap2\n      swap1\n      pop\n      jump\t// out\n        /* \"#utility.yul\":11023:11165   */\n    tag_97:\n        /* \"#utility.yul\":11073:11082   */\n      0x00\n        /* \"#utility.yul\":11106:11159   */\n      tag_224\n        /* \"#utility.yul\":11124:11158   */\n      tag_225\n        /* \"#utility.yul\":11133:11157   */\n      tag_226\n        /* \"#utility.yul\":11151:11156   */\n      dup5\n        /* \"#utility.yul\":11133:11157   */\n      tag_95\n      jump\t// in\n    tag_226:\n        /* \"#utility.yul\":11124:11158   */\n      tag_96\n      jump\t// in\n    tag_225:\n        /* \"#utility.yul\":11106:11159   */\n      tag_95\n      jump\t// in\n    tag_224:\n        /* \"#utility.yul\":11093:11159   */\n      swap1\n      pop\n        /* \"#utility.yul\":11023:11165   */\n      swap2\n      swap1\n      pop\n      jump\t// out\n        /* \"#utility.yul\":11171:11246   */\n    tag_98:\n        /* \"#utility.yul\":11214:11217   */\n      0x00\n        /* \"#utility.yul\":11235:11240   */\n      dup2\n        /* \"#utility.yul\":11228:11240   */\n      swap1\n      pop\n        /* \"#utility.yul\":11171:11246   */\n      swap2\n      swap1\n      pop\n      jump\t// out\n        /* \"#utility.yul\":11252:11521   */\n    tag_99:\n        /* \"#utility.yul\":11362:11401   */\n      tag_229\n        /* \"#utility.yul\":11393:11400   */\n      dup4\n        /* \"#utility.yul\":11362:11401   */\n      tag_97\n      jump\t// in\n    tag_229:\n        /* \"#utility.yul\":11423:11514   */\n      tag_230\n        /* \"#utility.yul\":11472:11513   */\n      tag_231\n        /* \"#utility.yul\":11496:11512   */\n      dup3\n        /* \"#utility.yul\":11472:11513   */\n      tag_98\n      jump\t// in\n    tag_231:\n        /* \"#utility.yul\":11464:11470   */\n      dup5\n        /* \"#utility.yul\":11457:11461   */\n      dup5\n        /* \"#utility.yul\":11451:11462   */\n      sload\n        /* \"#utility.yul\":11423:11514   */\n      tag_94\n      jump\t// in\n    tag_230:\n        /* \"#utility.yul\":11417:11421   */\n      dup3\n        /* \"#utility.yul\":11410:11515   */\n      sstore\n        /* \"#utility.yul\":11328:11521   */\n      pop\n        /* \"#utility.yul\":11252:11521   */\n      pop\n      pop\n      pop\n      jump\t// out\n        /* \"#utility.yul\":11527:11600   */\n    tag_100:\n        /* \"#utility.yul\":11572:11575   */\n      0x00\n        /* \"#utility.yul\":11527:11600   */\n      swap1\n      jump\t// out\n        /* \"#utility.yul\":11606:11795   */\n    tag_101:\n        /* \"#utility.yul\":11683:11715   */\n      tag_234\n      tag_100\n      jump\t// in\n    tag_234:\n        /* \"#utility.yul\":11724:11789   */\n      tag_235\n        /* \"#utility.yul\":11782:11788   */\n      dup2\n        /* \"#utility.yul\":11774:11780   */\n      dup5\n        /* \"#utility.yul\":11768:11772   */\n      dup5\n        /* \"#utility.yul\":11724:11789   */\n      tag_99\n      jump\t// in\n    tag_235:\n        /* \"#utility.yul\":11659:11795   */\n      pop\n        /* \"#utility.yul\":11606:11795   */\n      pop\n      pop\n      jump\t// out\n        /* \"#utility.yul\":11801:11987   */\n    tag_102:\n        /* \"#utility.yul\":11861:11981   */\n    tag_237:\n        /* \"#utility.yul\":11878:11881   */\n      dup2\n        /* \"#utility.yul\":11871:11876   */\n      dup2\n        /* \"#utility.yul\":11868:11882   */\n      lt\n        /* \"#utility.yul\":11861:11981   */\n      iszero\n      tag_239\n      jumpi\n        /* \"#utility.yul\":11932:11971   */\n      tag_240\n        /* \"#utility.yul\":11969:11970   */\n      0x00\n        /* \"#utility.yul\":11962:11967   */\n      dup3\n        /* \"#utility.yul\":11932:11971   */\n      tag_101\n      jump\t// in\n    tag_240:\n        /* \"#utility.yul\":11905:11906   */\n      0x01\n        /* \"#utility.yul\":11898:11903   */\n      dup2\n        /* \"#utility.yul\":11894:11907   */\n      add\n        /* \"#utility.yul\":11885:11907   */\n      swap1\n      pop\n        /* \"#utility.yul\":11861:11981   */\n      jump(tag_237)\n    tag_239:\n        /* \"#utility.yul\":11801:11987   */\n      pop\n      pop\n      jump\t// out\n        /* \"#utility.yul\":11993:12536   */\n    tag_103:\n        /* \"#utility.yul\":12094:12096   */\n      0x1f\n        /* \"#utility.yul\":12089:12092   */\n      dup3\n        /* \"#utility.yul\":12086:12097   */\n      gt\n        /* \"#utility.yul\":12083:12529   */\n      iszero\n      tag_242\n      jumpi\n        /* \"#utility.yul\":12128:12166   */\n      tag_243\n        /* \"#utility.yul\":12160:12165   */\n      dup2\n        /* \"#utility.yul\":12128:12166   */\n      tag_91\n      jump\t// in\n    tag_243:\n        /* \"#utility.yul\":12212:12241   */\n      tag_244\n        /* \"#utility.yul\":12230:12240   */\n      dup5\n        /* \"#utility.yul\":12212:12241   */\n      tag_92\n      jump\t// in\n    tag_244:\n        /* \"#utility.yul\":12202:12210   */\n      dup2\n        /* \"#utility.yul\":12198:12242   */\n      add\n        /* \"#utility.yul\":12395:12397   */\n      0x20\n        /* \"#utility.yul\":12383:12393   */\n      dup6\n        /* \"#utility.yul\":12380:12398   */\n      lt\n        /* \"#utility.yul\":12377:12426   */\n      iszero\n      tag_245\n      jumpi\n        /* \"#utility.yul\":12416:12424   */\n      dup2\n        /* \"#utility.yul\":12401:12424   */\n      swap1\n      pop\n        /* \"#utility.yul\":12377:12426   */\n    tag_245:\n        /* \"#utility.yul\":12439:12519   */\n      tag_246\n        /* \"#utility.yul\":12495:12517   */\n      tag_247\n        /* \"#utility.yul\":12513:12516   */\n      dup6\n        /* \"#utility.yul\":12495:12517   */\n      tag_92\n      jump\t// in\n    tag_247:\n        /* \"#utility.yul\":12485:12493   */\n      dup4\n        /* \"#utility.yul\":12481:12518   */\n      add\n        /* \"#utility.yul\":12468:12479   */\n      dup3\n        /* \"#utility.yul\":12439:12519   */\n      tag_102\n      jump\t// in\n    tag_246:\n        /* \"#utility.yul\":12098:12529   */\n      pop\n      pop\n        /* \"#utility.yul\":12083:12529   */\n    tag_242:\n        /* \"#utility.yul\":11993:12536   */\n      pop\n      pop\n      pop\n      jump\t// out\n        /* \"#utility.yul\":12542:12659   */\n    tag_104:\n        /* \"#utility.yul\":12596:12604   */\n      0x00\n        /* \"#utility.yul\":12646:12651   */\n      dup3\n        /* \"#utility.yul\":12640:12644   */\n      dup3\n        /* \"#utility.yul\":12636:12652   */\n      shr\n        /* \"#utility.yul\":12615:12652   */\n      swap1\n      pop\n        /* \"#utility.yul\":12542:12659   */\n      swap3\n      swap2\n      pop\n      pop\n      jump\t// out\n        /* \"#utility.yul\":12665:12834   */\n    tag_105:\n        /* \"#utility.yul\":12709:12715   */\n      0x00\n        /* \"#utility.yul\":12742:12793   */\n      tag_250\n        /* \"#utility.yul\":12790:12791   */\n      0x00\n        /* \"#utility.yul\":12786:12792   */\n      not\n        /* \"#utility.yul\":12778:12783   */\n      dup5\n        /* \"#utility.yul\":12775:12776   */\n      0x08\n        /* \"#utility.yul\":12771:12784   */\n      mul\n        /* \"#utility.yul\":12742:12793   */\n      tag_104\n      jump\t// in\n    tag_250:\n        /* \"#utility.yul\":12738:12794   */\n      not\n        /* \"#utility.yul\":12823:12827   */\n      dup1\n        /* \"#utility.yul\":12817:12821   */\n      dup4\n        /* \"#utility.yul\":12813:12828   */\n      and\n        /* \"#utility.yul\":12803:12828   */\n      swap2\n      pop\n        /* \"#utility.yul\":12716:12834   */\n      pop\n        /* \"#utility.yul\":12665:12834   */\n      swap3\n      swap2\n      pop\n      pop\n      jump\t// out\n        /* \"#utility.yul\":12839:13134   */\n    tag_106:\n        /* \"#utility.yul\":12915:12919   */\n      0x00\n        /* \"#utility.yul\":13061:13090   */\n      tag_252\n        /* \"#utility.yul\":13086:13089   */\n      dup4\n        /* \"#utility.yul\":13080:13084   */\n      dup4\n        /* \"#utility.yul\":13061:13090   */\n      tag_105\n      jump\t// in\n    tag_252:\n        /* \"#utility.yul\":13053:13090   */\n      swap2\n      pop\n        /* \"#utility.yul\":13123:13126   */\n      dup3\n        /* \"#utility.yul\":13120:13121   */\n      0x02\n        /* \"#utility.yul\":13116:13127   */\n      mul\n        /* \"#utility.yul\":13110:13114   */\n      dup3\n        /* \"#utility.yul\":13107:13128   */\n      or\n        /* \"#utility.yul\":13099:13128   */\n      swap1\n      pop\n        /* \"#utility.yul\":12839:13134   */\n      swap3\n      swap2\n      pop\n      pop\n      jump\t// out\n        /* \"#utility.yul\":13139:14534   */\n    tag_32:\n        /* \"#utility.yul\":13256:13293   */\n      tag_254\n        /* \"#utility.yul\":13289:13292   */\n      dup3\n        /* \"#utility.yul\":13256:13293   */\n      tag_79\n      jump\t// in\n    tag_254:\n        /* \"#utility.yul\":13358:13376   */\n      0xffffffffffffffff\n        /* \"#utility.yul\":13350:13356   */\n      dup2\n        /* \"#utility.yul\":13347:13377   */\n      gt\n        /* \"#utility.yul\":13344:13400   */\n      iszero\n      tag_255\n      jumpi\n        /* \"#utility.yul\":13380:13398   */\n      tag_256\n      tag_68\n      jump\t// in\n    tag_256:\n        /* \"#utility.yul\":13344:13400   */\n    tag_255:\n        /* \"#utility.yul\":13424:13462   */\n      tag_257\n        /* \"#utility.yul\":13456:13460   */\n      dup3\n        /* \"#utility.yul\":13450:13461   */\n      sload\n        /* \"#utility.yul\":13424:13462   */\n      tag_52\n      jump\t// in\n    tag_257:\n        /* \"#utility.yul\":13509:13576   */\n      tag_258\n        /* \"#utility.yul\":13569:13575   */\n      dup3\n        /* \"#utility.yul\":13561:13567   */\n      dup3\n        /* \"#utility.yul\":13555:13559   */\n      dup6\n        /* \"#utility.yul\":13509:13576   */\n      tag_103\n      jump\t// in\n    tag_258:\n        /* \"#utility.yul\":13603:13604   */\n      0x00\n        /* \"#utility.yul\":13627:13631   */\n      0x20\n        /* \"#utility.yul\":13614:13631   */\n      swap1\n      pop\n        /* \"#utility.yul\":13659:13661   */\n      0x1f\n        /* \"#utility.yul\":13651:13657   */\n      dup4\n        /* \"#utility.yul\":13648:13662   */\n      gt\n        /* \"#utility.yul\":13676:13677   */\n      0x01\n        /* \"#utility.yul\":13671:14289   */\n      dup2\n      eq\n      tag_260\n      jumpi\n        /* \"#utility.yul\":14333:14334   */\n      0x00\n        /* \"#utility.yul\":14350:14356   */\n      dup5\n        /* \"#utility.yul\":14347:14424   */\n      iszero\n      tag_261\n      jumpi\n        /* \"#utility.yul\":14399:14408   */\n      dup3\n        /* \"#utility.yul\":14394:14397   */\n      dup8\n        /* \"#utility.yul\":14390:14409   */\n      add\n        /* \"#utility.yul\":14384:14410   */\n      mload\n        /* \"#utility.yul\":14375:14410   */\n      swap1\n      pop\n        /* \"#utility.yul\":14347:14424   */\n    tag_261:\n        /* \"#utility.yul\":14450:14517   */\n      tag_262\n        /* \"#utility.yul\":14510:14516   */\n      dup6\n        /* \"#utility.yul\":14503:14508   */\n      dup3\n        /* \"#utility.yul\":14450:14517   */\n      tag_106\n      jump\t// in\n    tag_262:\n        /* \"#utility.yul\":14444:14448   */\n      dup7\n        /* \"#utility.yul\":14437:14518   */\n      sstore\n        /* \"#utility.yul\":14306:14528   */\n      pop\n        /* \"#utility.yul\":13641:14528   */\n      jump(tag_259)\n        /* \"#utility.yul\":13671:14289   */\n    tag_260:\n        /* \"#utility.yul\":13723:13727   */\n      0x1f\n        /* \"#utility.yul\":13719:13728   */\n      not\n        /* \"#utility.yul\":13711:13717   */\n      dup5\n        /* \"#utility.yul\":13707:13729   */\n      and\n        /* \"#utility.yul\":13757:13794   */\n      tag_263\n        /* \"#utility.yul\":13789:13793   */\n      dup7\n        /* \"#utility.yul\":13757:13794   */\n      tag_91\n      jump\t// in\n    tag_263:\n        /* \"#utility.yul\":13816:13817   */\n      0x00\n        /* \"#utility.yul\":13830:14038   */\n    tag_264:\n        /* \"#utility.yul\":13844:13851   */\n      dup3\n        /* \"#utility.yul\":13841:13842   */\n      dup2\n        /* \"#utility.yul\":13838:13852   */\n      lt\n        /* \"#utility.yul\":13830:14038   */\n      iszero\n      tag_266\n      jumpi\n        /* \"#utility.yul\":13923:13932   */\n      dup5\n        /* \"#utility.yul\":13918:13921   */\n      dup10\n        /* \"#utility.yul\":13914:13933   */\n      add\n        /* \"#utility.yul\":13908:13934   */\n      mload\n        /* \"#utility.yul\":13900:13906   */\n      dup3\n        /* \"#utility.yul\":13893:13935   */\n      sstore\n        /* \"#utility.yul\":13974:13975   */\n      0x01\n        /* \"#utility.yul\":13966:13972   */\n      dup3\n        /* \"#utility.yul\":13962:13976   */\n      add\n        /* \"#utility.yul\":13952:13976   */\n      swap2\n      pop\n        /* \"#utility.yul\":14021:14023   */\n      0x20\n        /* \"#utility.yul\":14010:14019   */\n      dup6\n        /* \"#utility.yul\":14006:14024   */\n      add\n        /* \"#utility.yul\":13993:14024   */\n      swap5\n      pop\n        /* \"#utility.yul\":13867:13871   */\n      0x20\n        /* \"#utility.yul\":13864:13865   */\n      dup2\n        /* \"#utility.yul\":13860:13872   */\n      add\n        /* \"#utility.yul\":13855:13872   */\n      swap1\n      pop\n        /* \"#utility.yul\":13830:14038   */\n      jump(tag_264)\n    tag_266:\n        /* \"#utility.yul\":14066:14072   */\n      dup7\n        /* \"#utility.yul\":14057:14064   */\n      dup4\n        /* \"#utility.yul\":14054:14073   */\n      lt\n        /* \"#utility.yul\":14051:14230   */\n      iszero\n      tag_267\n      jumpi\n        /* \"#utility.yul\":14124:14133   */\n      dup5\n        /* \"#utility.yul\":14119:14122   */\n      dup10\n        /* \"#utility.yul\":14115:14134   */\n      add\n        /* \"#utility.yul\":14109:14135   */\n      mload\n        /* \"#utility.yul\":14167:14215   */\n      tag_268\n        /* \"#utility.yul\":14209:14213   */\n      0x1f\n        /* \"#utility.yul\":14201:14207   */\n      dup10\n        /* \"#utility.yul\":14197:14214   */\n      and\n        /* \"#utility.yul\":14186:14195   */\n      dup3\n        /* \"#utility.yul\":14167:14215   */\n      tag_105\n      jump\t// in\n    tag_268:\n        /* \"#utility.yul\":14159:14165   */\n      dup4\n        /* \"#utility.yul\":14152:14216   */\n      sstore\n        /* \"#utility.yul\":14074:14230   */\n      pop\n        /* \"#utility.yul\":14051:14230   */\n    tag_267:\n        /* \"#utility.yul\":14276:14277   */\n      0x01\n        /* \"#utility.yul\":14272:14273   */\n      0x02\n        /* \"#utility.yul\":14264:14270   */\n      dup9\n        /* \"#utility.yul\":14260:14274   */\n      mul\n        /* \"#utility.yul\":14256:14278   */\n      add\n        /* \"#utility.yul\":14250:14254   */\n      dup9\n        /* \"#utility.yul\":14243:14279   */\n      sstore\n        /* \"#utility.yul\":13678:14289   */\n      pop\n      pop\n      pop\n        /* \"#utility.yul\":13641:14528   */\n    tag_259:\n      pop\n        /* \"#utility.yul\":13231:14534   */\n      pop\n      pop\n      pop\n        /* \"#utility.yul\":13139:14534   */\n      pop\n      pop\n      jump\t// out\n        /* \"#utility.yul\":14540:14688   */\n    tag_107:\n        /* \"#utility.yul\":14642:14653   */\n      0x00\n        /* \"#utility.yul\":14679:14682   */\n      dup2\n        /* \"#utility.yul\":14664:14682   */\n      swap1\n      pop\n        /* \"#utility.yul\":14540:14688   */\n      swap3\n      swap2\n      pop\n      pop\n      jump\t// out\n        /* \"#utility.yul\":14694:15084   */\n    tag_108:\n        /* \"#utility.yul\":14800:14803   */\n      0x00\n        /* \"#utility.yul\":14828:14867   */\n      tag_271\n        /* \"#utility.yul\":14861:14866   */\n      dup3\n        /* \"#utility.yul\":14828:14867   */\n      tag_79\n      jump\t// in\n    tag_271:\n        /* \"#utility.yul\":14883:14972   */\n      tag_272\n        /* \"#utility.yul\":14965:14971   */\n      dup2\n        /* \"#utility.yul\":14960:14963   */\n      dup6\n        /* \"#utility.yul\":14883:14972   */\n      tag_107\n      jump\t// in\n    tag_272:\n        /* \"#utility.yul\":14876:14972   */\n      swap4\n      pop\n        /* \"#utility.yul\":14981:15046   */\n      tag_273\n        /* \"#utility.yul\":15039:15045   */\n      dup2\n        /* \"#utility.yul\":15034:15037   */\n      dup6\n        /* \"#utility.yul\":15027:15031   */\n      0x20\n        /* \"#utility.yul\":15020:15025   */\n      dup7\n        /* \"#utility.yul\":15016:15032   */\n      add\n        /* \"#utility.yul\":14981:15046   */\n      tag_81\n      jump\t// in\n    tag_273:\n        /* \"#utility.yul\":15071:15077   */\n      dup1\n        /* \"#utility.yul\":15066:15069   */\n      dup5\n        /* \"#utility.yul\":15062:15078   */\n      add\n        /* \"#utility.yul\":15055:15078   */\n      swap2\n      pop\n        /* \"#utility.yul\":14804:15084   */\n      pop\n        /* \"#utility.yul\":14694:15084   */\n      swap3\n      swap2\n      pop\n      pop\n      jump\t// out\n        /* \"#utility.yul\":15090:15264   */\n    tag_109:\n        /* \"#utility.yul\":15230:15256   */\n      0x207375636365737366756c6c7920726567697374657265640000000000000000\n        /* \"#utility.yul\":15226:15227   */\n      0x00\n        /* \"#utility.yul\":15218:15224   */\n      dup3\n        /* \"#utility.yul\":15214:15228   */\n      add\n        /* \"#utility.yul\":15207:15257   */\n      mstore\n        /* \"#utility.yul\":15090:15264   */\n      pop\n      jump\t// out\n        /* \"#utility.yul\":15270:15672   */\n    tag_110:\n        /* \"#utility.yul\":15430:15433   */\n      0x00\n        /* \"#utility.yul\":15451:15536   */\n      tag_276\n        /* \"#utility.yul\":15533:15535   */\n      0x18\n        /* \"#utility.yul\":15528:15531   */\n      dup4\n        /* \"#utility.yul\":15451:15536   */\n      tag_107\n      jump\t// in\n    tag_276:\n        /* \"#utility.yul\":15444:15536   */\n      swap2\n      pop\n        /* \"#utility.yul\":15545:15638   */\n      tag_277\n        /* \"#utility.yul\":15634:15637   */\n      dup3\n        /* \"#utility.yul\":15545:15638   */\n      tag_109\n      jump\t// in\n    tag_277:\n        /* \"#utility.yul\":15663:15665   */\n      0x18\n        /* \"#utility.yul\":15658:15661   */\n      dup3\n        /* \"#utility.yul\":15654:15666   */\n      add\n        /* \"#utility.yul\":15647:15666   */\n      swap1\n      pop\n        /* \"#utility.yul\":15270:15672   */\n      swap2\n      swap1\n      pop\n      jump\t// out\n        /* \"#utility.yul\":15678:16219   */\n    tag_34:\n        /* \"#utility.yul\":15911:15914   */\n      0x00\n        /* \"#utility.yul\":15933:16028   */\n      tag_279\n        /* \"#utility.yul\":16024:16027   */\n      dup3\n        /* \"#utility.yul\":16015:16021   */\n      dup5\n        /* \"#utility.yul\":15933:16028   */\n      tag_108\n      jump\t// in\n    tag_279:\n        /* \"#utility.yul\":15926:16028   */\n      swap2\n      pop\n        /* \"#utility.yul\":16045:16193   */\n      tag_280\n        /* \"#utility.yul\":16189:16192   */\n      dup3\n        /* \"#utility.yul\":16045:16193   */\n      tag_110\n      jump\t// in\n    tag_280:\n        /* \"#utility.yul\":16038:16193   */\n      swap2\n      pop\n        /* \"#utility.yul\":16210:16213   */\n      dup2\n        /* \"#utility.yul\":16203:16213   */\n      swap1\n      pop\n        /* \"#utility.yul\":15678:16219   */\n      swap3\n      swap2\n      pop\n      pop\n      jump\t// out\n        /* \"#utility.yul\":16225:16387   */\n    tag_111:\n        /* \"#utility.yul\":16365:16379   */\n      0x556e617574686f72697a65640000000000000000000000000000000000000000\n        /* \"#utility.yul\":16361:16362   */\n      0x00\n        /* \"#utility.yul\":16353:16359   */\n      dup3\n        /* \"#utility.yul\":16349:16363   */\n      add\n        /* \"#utility.yul\":16342:16380   */\n      mstore\n        /* \"#utility.yul\":16225:16387   */\n      pop\n      jump\t// out\n        /* \"#utility.yul\":16393:16759   */\n    tag_112:\n        /* \"#utility.yul\":16535:16538   */\n      0x00\n        /* \"#utility.yul\":16556:16623   */\n      tag_283\n        /* \"#utility.yul\":16620:16622   */\n      0x0c\n        /* \"#utility.yul\":16615:16618   */\n      dup4\n        /* \"#utility.yul\":16556:16623   */\n      tag_80\n      jump\t// in\n    tag_283:\n        /* \"#utility.yul\":16549:16623   */\n      swap2\n      pop\n        /* \"#utility.yul\":16632:16725   */\n      tag_284\n        /* \"#utility.yul\":16721:16724   */\n      dup3\n        /* \"#utility.yul\":16632:16725   */\n      tag_111\n      jump\t// in\n    tag_284:\n        /* \"#utility.yul\":16750:16752   */\n      0x20\n        /* \"#utility.yul\":16745:16748   */\n      dup3\n        /* \"#utility.yul\":16741:16753   */\n      add\n        /* \"#utility.yul\":16734:16753   */\n      swap1\n      pop\n        /* \"#utility.yul\":16393:16759   */\n      swap2\n      swap1\n      pop\n      jump\t// out\n        /* \"#utility.yul\":16765:17184   */\n    tag_38:\n        /* \"#utility.yul\":16931:16935   */\n      0x00\n        /* \"#utility.yul\":16969:16971   */\n      0x20\n        /* \"#utility.yul\":16958:16967   */\n      dup3\n        /* \"#utility.yul\":16954:16972   */\n      add\n        /* \"#utility.yul\":16946:16972   */\n      swap1\n      pop\n        /* \"#utility.yul\":17018:17027   */\n      dup2\n        /* \"#utility.yul\":17012:17016   */\n      dup2\n        /* \"#utility.yul\":17008:17028   */\n      sub\n        /* \"#utility.yul\":17004:17005   */\n      0x00\n        /* \"#utility.yul\":16993:17002   */\n      dup4\n        /* \"#utility.yul\":16989:17006   */\n      add\n        /* \"#utility.yul\":16982:17029   */\n      mstore\n        /* \"#utility.yul\":17046:17177   */\n      tag_286\n        /* \"#utility.yul\":17172:17176   */\n      dup2\n        /* \"#utility.yul\":17046:17177   */\n      tag_112\n      jump\t// in\n    tag_286:\n        /* \"#utility.yul\":17038:17177   */\n      swap1\n      pop\n        /* \"#utility.yul\":16765:17184   */\n      swap2\n      swap1\n      pop\n      jump\t// out\n        /* \"#utility.yul\":17190:17370   */\n    tag_42:\n        /* \"#utility.yul\":17238:17315   */\n      0x4e487b7100000000000000000000000000000000000000000000000000000000\n        /* \"#utility.yul\":17235:17236   */\n      0x00\n        /* \"#utility.yul\":17228:17316   */\n      mstore\n        /* \"#utility.yul\":17335:17339   */\n      0x01\n        /* \"#utility.yul\":17332:17333   */\n      0x04\n        /* \"#utility.yul\":17325:17340   */\n      mstore\n        /* \"#utility.yul\":17359:17363   */\n      0x24\n        /* \"#utility.yul\":17356:17357   */\n      0x00\n        /* \"#utility.yul\":17349:17364   */\n      revert\n        /* \"#utility.yul\":17376:17545   */\n    tag_113:\n        /* \"#utility.yul\":17516:17537   */\n      0x426c6f6720646f65736e27742065786973747300000000000000000000000000\n        /* \"#utility.yul\":17512:17513   */\n      0x00\n        /* \"#utility.yul\":17504:17510   */\n      dup3\n        /* \"#utility.yul\":17500:17514   */\n      add\n        /* \"#utility.yul\":17493:17538   */\n      mstore\n        /* \"#utility.yul\":17376:17545   */\n      pop\n      jump\t// out\n        /* \"#utility.yul\":17551:17917   */\n    tag_114:\n        /* \"#utility.yul\":17693:17696   */\n      0x00\n        /* \"#utility.yul\":17714:17781   */\n      tag_290\n        /* \"#utility.yul\":17778:17780   */\n      0x13\n        /* \"#utility.yul\":17773:17776   */\n      dup4\n        /* \"#utility.yul\":17714:17781   */\n      tag_80\n      jump\t// in\n    tag_290:\n        /* \"#utility.yul\":17707:17781   */\n      swap2\n      pop\n        /* \"#utility.yul\":17790:17883   */\n      tag_291\n        /* \"#utility.yul\":17879:17882   */\n      dup3\n        /* \"#utility.yul\":17790:17883   */\n      tag_113\n      jump\t// in\n    tag_291:\n        /* \"#utility.yul\":17908:17910   */\n      0x20\n        /* \"#utility.yul\":17903:17906   */\n      dup3\n        /* \"#utility.yul\":17899:17911   */\n      add\n        /* \"#utility.yul\":17892:17911   */\n      swap1\n      pop\n        /* \"#utility.yul\":17551:17917   */\n      swap2\n      swap1\n      pop\n      jump\t// out\n        /* \"#utility.yul\":17923:18342   */\n    tag_50:\n        /* \"#utility.yul\":18089:18093   */\n      0x00\n        /* \"#utility.yul\":18127:18129   */\n      0x20\n        /* \"#utility.yul\":18116:18125   */\n      dup3\n        /* \"#utility.yul\":18112:18130   */\n      add\n        /* \"#utility.yul\":18104:18130   */\n      swap1\n      pop\n        /* \"#utility.yul\":18176:18185   */\n      dup2\n        /* \"#utility.yul\":18170:18174   */\n      dup2\n        /* \"#utility.yul\":18166:18186   */\n      sub\n        /* \"#utility.yul\":18162:18163   */\n      0x00\n        /* \"#utility.yul\":18151:18160   */\n      dup4\n        /* \"#utility.yul\":18147:18164   */\n      add\n        /* \"#utility.yul\":18140:18187   */\n      mstore\n        /* \"#utility.yul\":18204:18335   */\n      tag_293\n        /* \"#utility.yul\":18330:18334   */\n      dup2\n        /* \"#utility.yul\":18204:18335   */\n      tag_114\n      jump\t// in\n    tag_293:\n        /* \"#utility.yul\":18196:18335   */\n      swap1\n      pop\n        /* \"#utility.yul\":17923:18342   */\n      swap2\n      swap1\n      pop\n      jump\t// out\n\n    auxdata: 0xa2646970667358221220e9e5a2e1432ff0776e8db28f9ef1ada2d2e73c3752b438180074a53c18985cea64736f6c634300081a0033\n}\n",
				"bytecode": {
					"linkReferences": {},
					"object": "6080604052348015600e575f80fd5b503360025f6101000a81548173ffffffffffffffffffffffffffffffffffffffff021916908373ffffffffffffffffffffffffffffffffffffffff160217905550610fad8061005c5f395ff3fe608060405234801561000f575f80fd5b506004361061004a575f3560e01c80630e54b8721461004e5780632483dc041461007e5780636e7ef18e1461009a578063a52745e0146100b6575b5f80fd5b610068600480360381019061006391906107fa565b6100e6565b60405161007591906108b4565b60405180910390f35b610098600480360381019061009391906108d4565b610226565b005b6100b460048036038101906100af9190610912565b610310565b005b6100d060048036038101906100cb919061099a565b610415565b6040516100dd9190610a7b565b60405180910390f35b60605f808373ffffffffffffffffffffffffffffffffffffffff1673ffffffffffffffffffffffffffffffffffffffff1681526020019081526020015f206001015f9054906101000a900460ff1615610174576040517f08c379a000000000000000000000000000000000000000000000000000000000815260040161016b90610ae5565b60405180910390fd5b6040518060400160405280848152602001600115158152505f808473ffffffffffffffffffffffffffffffffffffffff1673ffffffffffffffffffffffffffffffffffffffff1681526020019081526020015f205f820151815f0190816101db9190610d06565b506020820151816001015f6101000a81548160ff0219169083151502179055509050508260405160200161020f9190610e59565b604051602081830303815290604052905092915050565b8073ffffffffffffffffffffffffffffffffffffffff1660025f9054906101000a900473ffffffffffffffffffffffffffffffffffffffff1673ffffffffffffffffffffffffffffffffffffffff16146102b5576040517f08c379a00000000000000000000000000000000000000000000000000000000081526004016102ac90610ec4565b60405180910390fd5b5f60015f8473ffffffffffffffffffffffffffffffffffffffff1673ffffffffffffffffffffffffffffffffffffffff1681526020019081526020015f206002015f6101000a81548160ff0219169083151502179055505050565b5f808273ffffffffffffffffffffffffffffffffffffffff1673ffffffffffffffffffffffffffffffffffffffff1681526020019081526020015f206001015f9054906101000a900460ff1661036957610368610ee2565b5b60405180606001604052808481526020018381526020016001151581525060015f8373ffffffffffffffffffffffffffffffffffffffff1673ffffffffffffffffffffffffffffffffffffffff1681526020019081526020015f205f820151815f0190816103d79190610d06565b5060208201518160010190816103ed9190610d06565b506040820151816002015f6101000a81548160ff021916908315150217905550905050505050565b61041d610631565b60015f8373ffffffffffffffffffffffffffffffffffffffff1673ffffffffffffffffffffffffffffffffffffffff1681526020019081526020015f206002015f9054906101000a900460ff166104a9576040517f08c379a00000000000000000000000000000000000000000000000000000000081526004016104a090610f59565b60405180910390fd5b60015f8373ffffffffffffffffffffffffffffffffffffffff1673ffffffffffffffffffffffffffffffffffffffff1681526020019081526020015f206040518060600160405290815f8201805461050090610b30565b80601f016020809104026020016040519081016040528092919081815260200182805461052c90610b30565b80156105775780601f1061054e57610100808354040283529160200191610577565b820191905f5260205f20905b81548152906001019060200180831161055a57829003601f168201915b5050505050815260200160018201805461059090610b30565b80601f01602080910402602001604051908101604052809291908181526020018280546105bc90610b30565b80156106075780601f106105de57610100808354040283529160200191610607565b820191905f5260205f20905b8154815290600101906020018083116105ea57829003601f168201915b50505050508152602001600282015f9054906101000a900460ff1615151515815250509050919050565b604051806060016040528060608152602001606081526020015f151581525090565b5f604051905090565b5f80fd5b5f80fd5b5f80fd5b5f80fd5b5f601f19601f8301169050919050565b7f4e487b71000000000000000000000000000000000000000000000000000000005f52604160045260245ffd5b6106b28261066c565b810181811067ffffffffffffffff821117156106d1576106d061067c565b5b80604052505050565b5f6106e3610653565b90506106ef82826106a9565b919050565b5f67ffffffffffffffff82111561070e5761070d61067c565b5b6107178261066c565b9050602081019050919050565b828183375f83830152505050565b5f61074461073f846106f4565b6106da565b9050828152602081018484840111156107605761075f610668565b5b61076b848285610724565b509392505050565b5f82601f83011261078757610786610664565b5b8135610797848260208601610732565b91505092915050565b5f73ffffffffffffffffffffffffffffffffffffffff82169050919050565b5f6107c9826107a0565b9050919050565b6107d9816107bf565b81146107e3575f80fd5b50565b5f813590506107f4816107d0565b92915050565b5f80604083850312156108105761080f61065c565b5b5f83013567ffffffffffffffff81111561082d5761082c610660565b5b61083985828601610773565b925050602061084a858286016107e6565b9150509250929050565b5f81519050919050565b5f82825260208201905092915050565b8281835e5f83830152505050565b5f61088682610854565b610890818561085e565b93506108a081856020860161086e565b6108a98161066c565b840191505092915050565b5f6020820190508181035f8301526108cc818461087c565b905092915050565b5f80604083850312156108ea576108e961065c565b5b5f6108f7858286016107e6565b9250506020610908858286016107e6565b9150509250929050565b5f805f606084860312156109295761092861065c565b5b5f84013567ffffffffffffffff81111561094657610945610660565b5b61095286828701610773565b935050602084013567ffffffffffffffff81111561097357610972610660565b5b61097f86828701610773565b9250506040610990868287016107e6565b9150509250925092565b5f602082840312156109af576109ae61065c565b5b5f6109bc848285016107e6565b91505092915050565b5f82825260208201905092915050565b5f6109df82610854565b6109e981856109c5565b93506109f981856020860161086e565b610a028161066c565b840191505092915050565b5f8115159050919050565b610a2181610a0d565b82525050565b5f606083015f8301518482035f860152610a4182826109d5565b91505060208301518482036020860152610a5b82826109d5565b9150506040830151610a706040860182610a18565b508091505092915050565b5f6020820190508181035f830152610a938184610a27565b905092915050565b7f416c7265616479207265676973746572656400000000000000000000000000005f82015250565b5f610acf60128361085e565b9150610ada82610a9b565b602082019050919050565b5f6020820190508181035f830152610afc81610ac3565b9050919050565b7f4e487b71000000000000000000000000000000000000000000000000000000005f52602260045260245ffd5b5f6002820490506001821680610b4757607f821691505b602082108103610b5a57610b59610b03565b5b50919050565b5f819050815f5260205f209050919050565b5f6020601f8301049050919050565b5f82821b905092915050565b5f60088302610bbc7fffffffffffffffffffffffffffffffffffffffffffffffffffffffffffffffff82610b81565b610bc68683610b81565b95508019841693508086168417925050509392505050565b5f819050919050565b5f819050919050565b5f610c0a610c05610c0084610bde565b610be7565b610bde565b9050919050565b5f819050919050565b610c2383610bf0565b610c37610c2f82610c11565b848454610b8d565b825550505050565b5f90565b610c4b610c3f565b610c56818484610c1a565b505050565b5b81811015610c7957610c6e5f82610c43565b600181019050610c5c565b5050565b601f821115610cbe57610c8f81610b60565b610c9884610b72565b81016020851015610ca7578190505b610cbb610cb385610b72565b830182610c5b565b50505b505050565b5f82821c905092915050565b5f610cde5f1984600802610cc3565b1980831691505092915050565b5f610cf68383610ccf565b9150826002028217905092915050565b610d0f82610854565b67ffffffffffffffff811115610d2857610d2761067c565b5b610d328254610b30565b610d3d828285610c7d565b5f60209050601f831160018114610d6e575f8415610d5c578287015190505b610d668582610ceb565b865550610dcd565b601f198416610d7c86610b60565b5f5b82811015610da357848901518255600182019150602085019450602081019050610d7e565b86831015610dc05784890151610dbc601f891682610ccf565b8355505b6001600288020188555050505b505050505050565b5f81905092915050565b5f610de982610854565b610df38185610dd5565b9350610e0381856020860161086e565b80840191505092915050565b7f207375636365737366756c6c79207265676973746572656400000000000000005f82015250565b5f610e43601883610dd5565b9150610e4e82610e0f565b601882019050919050565b5f610e648284610ddf565b9150610e6f82610e37565b915081905092915050565b7f556e617574686f72697a656400000000000000000000000000000000000000005f82015250565b5f610eae600c8361085e565b9150610eb982610e7a565b602082019050919050565b5f6020820190508181035f830152610edb81610ea2565b9050919050565b7f4e487b71000000000000000000000000000000000000000000000000000000005f52600160045260245ffd5b7f426c6f6720646f65736e277420657869737473000000000000000000000000005f82015250565b5f610f4360138361085e565b9150610f4e82610f0f565b602082019050919050565b5f6020820190508181035f830152610f7081610f37565b905091905056fea2646970667358221220e9e5a2e1432ff0776e8db28f9ef1ada2d2e73c3752b438180074a53c18985cea64736f6c634300081a0033",
					"opcodes": "PUSH1 0x80 PUSH1 0x40 MSTORE CALLVALUE DUP1 ISZERO PUSH1 0xE JUMPI PUSH0 DUP1 REVERT JUMPDEST POP CALLER PUSH1 0x2 PUSH0 PUSH2 0x100 EXP DUP2 SLOAD DUP2 PUSH20 0xFFFFFFFFFFFFFFFFFFFFFFFFFFFFFFFFFFFFFFFF MUL NOT AND SWAP1 DUP4 PUSH20 0xFFFFFFFFFFFFFFFFFFFFFFFFFFFFFFFFFFFFFFFF AND MUL OR SWAP1 SSTORE POP PUSH2 0xFAD DUP1 PUSH2 0x5C PUSH0 CODECOPY PUSH0 RETURN INVALID PUSH1 0x80 PUSH1 0x40 MSTORE CALLVALUE DUP1 ISZERO PUSH2 0xF JUMPI PUSH0 DUP1 REVERT JUMPDEST POP PUSH1 0x4 CALLDATASIZE LT PUSH2 0x4A JUMPI PUSH0 CALLDATALOAD PUSH1 0xE0 SHR DUP1 PUSH4 0xE54B872 EQ PUSH2 0x4E JUMPI DUP1 PUSH4 0x2483DC04 EQ PUSH2 0x7E JUMPI DUP1 PUSH4 0x6E7EF18E EQ PUSH2 0x9A JUMPI DUP1 PUSH4 0xA52745E0 EQ PUSH2 0xB6 JUMPI JUMPDEST PUSH0 DUP1 REVERT JUMPDEST PUSH2 0x68 PUSH1 0x4 DUP1 CALLDATASIZE SUB DUP2 ADD SWAP1 PUSH2 0x63 SWAP2 SWAP1 PUSH2 0x7FA JUMP JUMPDEST PUSH2 0xE6 JUMP JUMPDEST PUSH1 0x40 MLOAD PUSH2 0x75 SWAP2 SWAP1 PUSH2 0x8B4 JUMP JUMPDEST PUSH1 0x40 MLOAD DUP1 SWAP2 SUB SWAP1 RETURN JUMPDEST PUSH2 0x98 PUSH1 0x4 DUP1 CALLDATASIZE SUB DUP2 ADD SWAP1 PUSH2 0x93 SWAP2 SWAP1 PUSH2 0x8D4 JUMP JUMPDEST PUSH2 0x226 JUMP JUMPDEST STOP JUMPDEST PUSH2 0xB4 PUSH1 0x4 DUP1 CALLDATASIZE SUB DUP2 ADD SWAP1 PUSH2 0xAF SWAP2 SWAP1 PUSH2 0x912 JUMP JUMPDEST PUSH2 0x310 JUMP JUMPDEST STOP JUMPDEST PUSH2 0xD0 PUSH1 0x4 DUP1 CALLDATASIZE SUB DUP2 ADD SWAP1 PUSH2 0xCB SWAP2 SWAP1 PUSH2 0x99A JUMP JUMPDEST PUSH2 0x415 JUMP JUMPDEST PUSH1 0x40 MLOAD PUSH2 0xDD SWAP2 SWAP1 PUSH2 0xA7B JUMP JUMPDEST PUSH1 0x40 MLOAD DUP1 SWAP2 SUB SWAP1 RETURN JUMPDEST PUSH1 0x60 PUSH0 DUP1 DUP4 PUSH20 0xFFFFFFFFFFFFFFFFFFFFFFFFFFFFFFFFFFFFFFFF AND PUSH20 0xFFFFFFFFFFFFFFFFFFFFFFFFFFFFFFFFFFFFFFFF AND DUP2 MSTORE PUSH1 0x20 ADD SWAP1 DUP2 MSTORE PUSH1 0x20 ADD PUSH0 KECCAK256 PUSH1 0x1 ADD PUSH0 SWAP1 SLOAD SWAP1 PUSH2 0x100 EXP SWAP1 DIV PUSH1 0xFF AND ISZERO PUSH2 0x174 JUMPI PUSH1 0x40 MLOAD PUSH32 0x8C379A000000000000000000000000000000000000000000000000000000000 DUP2 MSTORE PUSH1 0x4 ADD PUSH2 0x16B SWAP1 PUSH2 0xAE5 JUMP JUMPDEST PUSH1 0x40 MLOAD DUP1 SWAP2 SUB SWAP1 REVERT JUMPDEST PUSH1 0x40 MLOAD DUP1 PUSH1 0x40 ADD PUSH1 0x40 MSTORE DUP1 DUP5 DUP2 MSTORE PUSH1 0x20 ADD PUSH1 0x1 ISZERO ISZERO DUP2 MSTORE POP PUSH0 DUP1 DUP5 PUSH20 0xFFFFFFFFFFFFFFFFFFFFFFFFFFFFFFFFFFFFFFFF AND PUSH20 0xFFFFFFFFFFFFFFFFFFFFFFFFFFFFFFFFFFFFFFFF AND DUP2 MSTORE PUSH1 0x20 ADD SWAP1 DUP2 MSTORE PUSH1 0x20 ADD PUSH0 KECCAK256 PUSH0 DUP3 ADD MLOAD DUP2 PUSH0 ADD SWAP1 DUP2 PUSH2 0x1DB SWAP2 SWAP1 PUSH2 0xD06 JUMP JUMPDEST POP PUSH1 0x20 DUP3 ADD MLOAD DUP2 PUSH1 0x1 ADD PUSH0 PUSH2 0x100 EXP DUP2 SLOAD DUP2 PUSH1 0xFF MUL NOT AND SWAP1 DUP4 ISZERO ISZERO MUL OR SWAP1 SSTORE POP SWAP1 POP POP DUP3 PUSH1 0x40 MLOAD PUSH1 0x20 ADD PUSH2 0x20F SWAP2 SWAP1 PUSH2 0xE59 JUMP JUMPDEST PUSH1 0x40 MLOAD PUSH1 0x20 DUP2 DUP4 SUB SUB DUP2 MSTORE SWAP1 PUSH1 0x40 MSTORE SWAP1 POP SWAP3 SWAP2 POP POP JUMP JUMPDEST DUP1 PUSH20 0xFFFFFFFFFFFFFFFFFFFFFFFFFFFFFFFFFFFFFFFF AND PUSH1 0x2 PUSH0 SWAP1 SLOAD SWAP1 PUSH2 0x100 EXP SWAP1 DIV PUSH20 0xFFFFFFFFFFFFFFFFFFFFFFFFFFFFFFFFFFFFFFFF AND PUSH20 0xFFFFFFFFFFFFFFFFFFFFFFFFFFFFFFFFFFFFFFFF AND EQ PUSH2 0x2B5 JUMPI PUSH1 0x40 MLOAD PUSH32 0x8C379A000000000000000000000000000000000000000000000000000000000 DUP2 MSTORE PUSH1 0x4 ADD PUSH2 0x2AC SWAP1 PUSH2 0xEC4 JUMP JUMPDEST PUSH1 0x40 MLOAD DUP1 SWAP2 SUB SWAP1 REVERT JUMPDEST PUSH0 PUSH1 0x1 PUSH0 DUP5 PUSH20 0xFFFFFFFFFFFFFFFFFFFFFFFFFFFFFFFFFFFFFFFF AND PUSH20 0xFFFFFFFFFFFFFFFFFFFFFFFFFFFFFFFFFFFFFFFF AND DUP2 MSTORE PUSH1 0x20 ADD SWAP1 DUP2 MSTORE PUSH1 0x20 ADD PUSH0 KECCAK256 PUSH1 0x2 ADD PUSH0 PUSH2 0x100 EXP DUP2 SLOAD DUP2 PUSH1 0xFF MUL NOT AND SWAP1 DUP4 ISZERO ISZERO MUL OR SWAP1 SSTORE POP POP POP JUMP JUMPDEST PUSH0 DUP1 DUP3 PUSH20 0xFFFFFFFFFFFFFFFFFFFFFFFFFFFFFFFFFFFFFFFF AND PUSH20 0xFFFFFFFFFFFFFFFFFFFFFFFFFFFFFFFFFFFFFFFF AND DUP2 MSTORE PUSH1 0x20 ADD SWAP1 DUP2 MSTORE PUSH1 0x20 ADD PUSH0 KECCAK256 PUSH1 0x1 ADD PUSH0 SWAP1 SLOAD SWAP1 PUSH2 0x100 EXP SWAP1 DIV PUSH1 0xFF AND PUSH2 0x369 JUMPI PUSH2 0x368 PUSH2 0xEE2 JUMP JUMPDEST JUMPDEST PUSH1 0x40 MLOAD DUP1 PUSH1 0x60 ADD PUSH1 0x40 MSTORE DUP1 DUP5 DUP2 MSTORE PUSH1 0x20 ADD DUP4 DUP2 MSTORE PUSH1 0x20 ADD PUSH1 0x1 ISZERO ISZERO DUP2 MSTORE POP PUSH1 0x1 PUSH0 DUP4 PUSH20 0xFFFFFFFFFFFFFFFFFFFFFFFFFFFFFFFFFFFFFFFF AND PUSH20 0xFFFFFFFFFFFFFFFFFFFFFFFFFFFFFFFFFFFFFFFF AND DUP2 MSTORE PUSH1 0x20 ADD SWAP1 DUP2 MSTORE PUSH1 0x20 ADD PUSH0 KECCAK256 PUSH0 DUP3 ADD MLOAD DUP2 PUSH0 ADD SWAP1 DUP2 PUSH2 0x3D7 SWAP2 SWAP1 PUSH2 0xD06 JUMP JUMPDEST POP PUSH1 0x20 DUP3 ADD MLOAD DUP2 PUSH1 0x1 ADD SWAP1 DUP2 PUSH2 0x3ED SWAP2 SWAP1 PUSH2 0xD06 JUMP JUMPDEST POP PUSH1 0x40 DUP3 ADD MLOAD DUP2 PUSH1 0x2 ADD PUSH0 PUSH2 0x100 EXP DUP2 SLOAD DUP2 PUSH1 0xFF MUL NOT AND SWAP1 DUP4 ISZERO ISZERO MUL OR SWAP1 SSTORE POP SWAP1 POP POP POP POP POP JUMP JUMPDEST PUSH2 0x41D PUSH2 0x631 JUMP JUMPDEST PUSH1 0x1 PUSH0 DUP4 PUSH20 0xFFFFFFFFFFFFFFFFFFFFFFFFFFFFFFFFFFFFFFFF AND PUSH20 0xFFFFFFFFFFFFFFFFFFFFFFFFFFFFFFFFFFFFFFFF AND DUP2 MSTORE PUSH1 0x20 ADD SWAP1 DUP2 MSTORE PUSH1 0x20 ADD PUSH0 KECCAK256 PUSH1 0x2 ADD PUSH0 SWAP1 SLOAD SWAP1 PUSH2 0x100 EXP SWAP1 DIV PUSH1 0xFF AND PUSH2 0x4A9 JUMPI PUSH1 0x40 MLOAD PUSH32 0x8C379A000000000000000000000000000000000000000000000000000000000 DUP2 MSTORE PUSH1 0x4 ADD PUSH2 0x4A0 SWAP1 PUSH2 0xF59 JUMP JUMPDEST PUSH1 0x40 MLOAD DUP1 SWAP2 SUB SWAP1 REVERT JUMPDEST PUSH1 0x1 PUSH0 DUP4 PUSH20 0xFFFFFFFFFFFFFFFFFFFFFFFFFFFFFFFFFFFFFFFF AND PUSH20 0xFFFFFFFFFFFFFFFFFFFFFFFFFFFFFFFFFFFFFFFF AND DUP2 MSTORE PUSH1 0x20 ADD SWAP1 DUP2 MSTORE PUSH1 0x20 ADD PUSH0 KECCAK256 PUSH1 0x40 MLOAD DUP1 PUSH1 0x60 ADD PUSH1 0x40 MSTORE SWAP1 DUP2 PUSH0 DUP3 ADD DUP1 SLOAD PUSH2 0x500 SWAP1 PUSH2 0xB30 JUMP JUMPDEST DUP1 PUSH1 0x1F ADD PUSH1 0x20 DUP1 SWAP2 DIV MUL PUSH1 0x20 ADD PUSH1 0x40 MLOAD SWAP1 DUP2 ADD PUSH1 0x40 MSTORE DUP1 SWAP3 SWAP2 SWAP1 DUP2 DUP2 MSTORE PUSH1 0x20 ADD DUP3 DUP1 SLOAD PUSH2 0x52C SWAP1 PUSH2 0xB30 JUMP JUMPDEST DUP1 ISZERO PUSH2 0x577 JUMPI DUP1 PUSH1 0x1F LT PUSH2 0x54E JUMPI PUSH2 0x100 DUP1 DUP4 SLOAD DIV MUL DUP4 MSTORE SWAP2 PUSH1 0x20 ADD SWAP2 PUSH2 0x577 JUMP JUMPDEST DUP3 ADD SWAP2 SWAP1 PUSH0 MSTORE PUSH1 0x20 PUSH0 KECCAK256 SWAP1 JUMPDEST DUP2 SLOAD DUP2 MSTORE SWAP1 PUSH1 0x1 ADD SWAP1 PUSH1 0x20 ADD DUP1 DUP4 GT PUSH2 0x55A JUMPI DUP3 SWAP1 SUB PUSH1 0x1F AND DUP3 ADD SWAP2 JUMPDEST POP POP POP POP POP DUP2 MSTORE PUSH1 0x20 ADD PUSH1 0x1 DUP3 ADD DUP1 SLOAD PUSH2 0x590 SWAP1 PUSH2 0xB30 JUMP JUMPDEST DUP1 PUSH1 0x1F ADD PUSH1 0x20 DUP1 SWAP2 DIV MUL PUSH1 0x20 ADD PUSH1 0x40 MLOAD SWAP1 DUP2 ADD PUSH1 0x40 MSTORE DUP1 SWAP3 SWAP2 SWAP1 DUP2 DUP2 MSTORE PUSH1 0x20 ADD DUP3 DUP1 SLOAD PUSH2 0x5BC SWAP1 PUSH2 0xB30 JUMP JUMPDEST DUP1 ISZERO PUSH2 0x607 JUMPI DUP1 PUSH1 0x1F LT PUSH2 0x5DE JUMPI PUSH2 0x100 DUP1 DUP4 SLOAD DIV MUL DUP4 MSTORE SWAP2 PUSH1 0x20 ADD SWAP2 PUSH2 0x607 JUMP JUMPDEST DUP3 ADD SWAP2 SWAP1 PUSH0 MSTORE PUSH1 0x20 PUSH0 KECCAK256 SWAP1 JUMPDEST DUP2 SLOAD DUP2 MSTORE SWAP1 PUSH1 0x1 ADD SWAP1 PUSH1 0x20 ADD DUP1 DUP4 GT PUSH2 0x5EA JUMPI DUP3 SWAP1 SUB PUSH1 0x1F AND DUP3 ADD SWAP2 JUMPDEST POP POP POP POP POP DUP2 MSTORE PUSH1 0x20 ADD PUSH1 0x2 DUP3 ADD PUSH0 SWAP1 SLOAD SWAP1 PUSH2 0x100 EXP SWAP1 DIV PUSH1 0xFF AND ISZERO ISZERO ISZERO ISZERO DUP2 MSTORE POP POP SWAP1 POP SWAP2 SWAP1 POP JUMP JUMPDEST PUSH1 0x40 MLOAD DUP1 PUSH1 0x60 ADD PUSH1 0x40 MSTORE DUP1 PUSH1 0x60 DUP2 MSTORE PUSH1 0x20 ADD PUSH1 0x60 DUP2 MSTORE PUSH1 0x20 ADD PUSH0 ISZERO ISZERO DUP2 MSTORE POP SWAP1 JUMP JUMPDEST PUSH0 PUSH1 0x40 MLOAD SWAP1 POP SWAP1 JUMP JUMPDEST PUSH0 DUP1 REVERT JUMPDEST PUSH0 DUP1 REVERT JUMPDEST PUSH0 DUP1 REVERT JUMPDEST PUSH0 DUP1 REVERT JUMPDEST PUSH0 PUSH1 0x1F NOT PUSH1 0x1F DUP4 ADD AND SWAP1 POP SWAP2 SWAP1 POP JUMP JUMPDEST PUSH32 0x4E487B7100000000000000000000000000000000000000000000000000000000 PUSH0 MSTORE PUSH1 0x41 PUSH1 0x4 MSTORE PUSH1 0x24 PUSH0 REVERT JUMPDEST PUSH2 0x6B2 DUP3 PUSH2 0x66C JUMP JUMPDEST DUP2 ADD DUP2 DUP2 LT PUSH8 0xFFFFFFFFFFFFFFFF DUP3 GT OR ISZERO PUSH2 0x6D1 JUMPI PUSH2 0x6D0 PUSH2 0x67C JUMP JUMPDEST JUMPDEST DUP1 PUSH1 0x40 MSTORE POP POP POP JUMP JUMPDEST PUSH0 PUSH2 0x6E3 PUSH2 0x653 JUMP JUMPDEST SWAP1 POP PUSH2 0x6EF DUP3 DUP3 PUSH2 0x6A9 JUMP JUMPDEST SWAP2 SWAP1 POP JUMP JUMPDEST PUSH0 PUSH8 0xFFFFFFFFFFFFFFFF DUP3 GT ISZERO PUSH2 0x70E JUMPI PUSH2 0x70D PUSH2 0x67C JUMP JUMPDEST JUMPDEST PUSH2 0x717 DUP3 PUSH2 0x66C JUMP JUMPDEST SWAP1 POP PUSH1 0x20 DUP2 ADD SWAP1 POP SWAP2 SWAP1 POP JUMP JUMPDEST DUP3 DUP2 DUP4 CALLDATACOPY PUSH0 DUP4 DUP4 ADD MSTORE POP POP POP JUMP JUMPDEST PUSH0 PUSH2 0x744 PUSH2 0x73F DUP5 PUSH2 0x6F4 JUMP JUMPDEST PUSH2 0x6DA JUMP JUMPDEST SWAP1 POP DUP3 DUP2 MSTORE PUSH1 0x20 DUP2 ADD DUP5 DUP5 DUP5 ADD GT ISZERO PUSH2 0x760 JUMPI PUSH2 0x75F PUSH2 0x668 JUMP JUMPDEST JUMPDEST PUSH2 0x76B DUP5 DUP3 DUP6 PUSH2 0x724 JUMP JUMPDEST POP SWAP4 SWAP3 POP POP POP JUMP JUMPDEST PUSH0 DUP3 PUSH1 0x1F DUP4 ADD SLT PUSH2 0x787 JUMPI PUSH2 0x786 PUSH2 0x664 JUMP JUMPDEST JUMPDEST DUP2 CALLDATALOAD PUSH2 0x797 DUP5 DUP3 PUSH1 0x20 DUP7 ADD PUSH2 0x732 JUMP JUMPDEST SWAP2 POP POP SWAP3 SWAP2 POP POP JUMP JUMPDEST PUSH0 PUSH20 0xFFFFFFFFFFFFFFFFFFFFFFFFFFFFFFFFFFFFFFFF DUP3 AND SWAP1 POP SWAP2 SWAP1 POP JUMP JUMPDEST PUSH0 PUSH2 0x7C9 DUP3 PUSH2 0x7A0 JUMP JUMPDEST SWAP1 POP SWAP2 SWAP1 POP JUMP JUMPDEST PUSH2 0x7D9 DUP2 PUSH2 0x7BF JUMP JUMPDEST DUP2 EQ PUSH2 0x7E3 JUMPI PUSH0 DUP1 REVERT JUMPDEST POP JUMP JUMPDEST PUSH0 DUP2 CALLDATALOAD SWAP1 POP PUSH2 0x7F4 DUP2 PUSH2 0x7D0 JUMP JUMPDEST SWAP3 SWAP2 POP POP JUMP JUMPDEST PUSH0 DUP1 PUSH1 0x40 DUP4 DUP6 SUB SLT ISZERO PUSH2 0x810 JUMPI PUSH2 0x80F PUSH2 0x65C JUMP JUMPDEST JUMPDEST PUSH0 DUP4 ADD CALLDATALOAD PUSH8 0xFFFFFFFFFFFFFFFF DUP2 GT ISZERO PUSH2 0x82D JUMPI PUSH2 0x82C PUSH2 0x660 JUMP JUMPDEST JUMPDEST PUSH2 0x839 DUP6 DUP3 DUP7 ADD PUSH2 0x773 JUMP JUMPDEST SWAP3 POP POP PUSH1 0x20 PUSH2 0x84A DUP6 DUP3 DUP7 ADD PUSH2 0x7E6 JUMP JUMPDEST SWAP2 POP POP SWAP3 POP SWAP3 SWAP1 POP JUMP JUMPDEST PUSH0 DUP2 MLOAD SWAP1 POP SWAP2 SWAP1 POP JUMP JUMPDEST PUSH0 DUP3 DUP3 MSTORE PUSH1 0x20 DUP3 ADD SWAP1 POP SWAP3 SWAP2 POP POP JUMP JUMPDEST DUP3 DUP2 DUP4 MCOPY PUSH0 DUP4 DUP4 ADD MSTORE POP POP POP JUMP JUMPDEST PUSH0 PUSH2 0x886 DUP3 PUSH2 0x854 JUMP JUMPDEST PUSH2 0x890 DUP2 DUP6 PUSH2 0x85E JUMP JUMPDEST SWAP4 POP PUSH2 0x8A0 DUP2 DUP6 PUSH1 0x20 DUP7 ADD PUSH2 0x86E JUMP JUMPDEST PUSH2 0x8A9 DUP2 PUSH2 0x66C JUMP JUMPDEST DUP5 ADD SWAP2 POP POP SWAP3 SWAP2 POP POP JUMP JUMPDEST PUSH0 PUSH1 0x20 DUP3 ADD SWAP1 POP DUP2 DUP2 SUB PUSH0 DUP4 ADD MSTORE PUSH2 0x8CC DUP2 DUP5 PUSH2 0x87C JUMP JUMPDEST SWAP1 POP SWAP3 SWAP2 POP POP JUMP JUMPDEST PUSH0 DUP1 PUSH1 0x40 DUP4 DUP6 SUB SLT ISZERO PUSH2 0x8EA JUMPI PUSH2 0x8E9 PUSH2 0x65C JUMP JUMPDEST JUMPDEST PUSH0 PUSH2 0x8F7 DUP6 DUP3 DUP7 ADD PUSH2 0x7E6 JUMP JUMPDEST SWAP3 POP POP PUSH1 0x20 PUSH2 0x908 DUP6 DUP3 DUP7 ADD PUSH2 0x7E6 JUMP JUMPDEST SWAP2 POP POP SWAP3 POP SWAP3 SWAP1 POP JUMP JUMPDEST PUSH0 DUP1 PUSH0 PUSH1 0x60 DUP5 DUP7 SUB SLT ISZERO PUSH2 0x929 JUMPI PUSH2 0x928 PUSH2 0x65C JUMP JUMPDEST JUMPDEST PUSH0 DUP5 ADD CALLDATALOAD PUSH8 0xFFFFFFFFFFFFFFFF DUP2 GT ISZERO PUSH2 0x946 JUMPI PUSH2 0x945 PUSH2 0x660 JUMP JUMPDEST JUMPDEST PUSH2 0x952 DUP7 DUP3 DUP8 ADD PUSH2 0x773 JUMP JUMPDEST SWAP4 POP POP PUSH1 0x20 DUP5 ADD CALLDATALOAD PUSH8 0xFFFFFFFFFFFFFFFF DUP2 GT ISZERO PUSH2 0x973 JUMPI PUSH2 0x972 PUSH2 0x660 JUMP JUMPDEST JUMPDEST PUSH2 0x97F DUP7 DUP3 DUP8 ADD PUSH2 0x773 JUMP JUMPDEST SWAP3 POP POP PUSH1 0x40 PUSH2 0x990 DUP7 DUP3 DUP8 ADD PUSH2 0x7E6 JUMP JUMPDEST SWAP2 POP POP SWAP3 POP SWAP3 POP SWAP3 JUMP JUMPDEST PUSH0 PUSH1 0x20 DUP3 DUP5 SUB SLT ISZERO PUSH2 0x9AF JUMPI PUSH2 0x9AE PUSH2 0x65C JUMP JUMPDEST JUMPDEST PUSH0 PUSH2 0x9BC DUP5 DUP3 DUP6 ADD PUSH2 0x7E6 JUMP JUMPDEST SWAP2 POP POP SWAP3 SWAP2 POP POP JUMP JUMPDEST PUSH0 DUP3 DUP3 MSTORE PUSH1 0x20 DUP3 ADD SWAP1 POP SWAP3 SWAP2 POP POP JUMP JUMPDEST PUSH0 PUSH2 0x9DF DUP3 PUSH2 0x854 JUMP JUMPDEST PUSH2 0x9E9 DUP2 DUP6 PUSH2 0x9C5 JUMP JUMPDEST SWAP4 POP PUSH2 0x9F9 DUP2 DUP6 PUSH1 0x20 DUP7 ADD PUSH2 0x86E JUMP JUMPDEST PUSH2 0xA02 DUP2 PUSH2 0x66C JUMP JUMPDEST DUP5 ADD SWAP2 POP POP SWAP3 SWAP2 POP POP JUMP JUMPDEST PUSH0 DUP2 ISZERO ISZERO SWAP1 POP SWAP2 SWAP1 POP JUMP JUMPDEST PUSH2 0xA21 DUP2 PUSH2 0xA0D JUMP JUMPDEST DUP3 MSTORE POP POP JUMP JUMPDEST PUSH0 PUSH1 0x60 DUP4 ADD PUSH0 DUP4 ADD MLOAD DUP5 DUP3 SUB PUSH0 DUP7 ADD MSTORE PUSH2 0xA41 DUP3 DUP3 PUSH2 0x9D5 JUMP JUMPDEST SWAP2 POP POP PUSH1 0x20 DUP4 ADD MLOAD DUP5 DUP3 SUB PUSH1 0x20 DUP7 ADD MSTORE PUSH2 0xA5B DUP3 DUP3 PUSH2 0x9D5 JUMP JUMPDEST SWAP2 POP POP PUSH1 0x40 DUP4 ADD MLOAD PUSH2 0xA70 PUSH1 0x40 DUP7 ADD DUP3 PUSH2 0xA18 JUMP JUMPDEST POP DUP1 SWAP2 POP POP SWAP3 SWAP2 POP POP JUMP JUMPDEST PUSH0 PUSH1 0x20 DUP3 ADD SWAP1 POP DUP2 DUP2 SUB PUSH0 DUP4 ADD MSTORE PUSH2 0xA93 DUP2 DUP5 PUSH2 0xA27 JUMP JUMPDEST SWAP1 POP SWAP3 SWAP2 POP POP JUMP JUMPDEST PUSH32 0x416C726561647920726567697374657265640000000000000000000000000000 PUSH0 DUP3 ADD MSTORE POP JUMP JUMPDEST PUSH0 PUSH2 0xACF PUSH1 0x12 DUP4 PUSH2 0x85E JUMP JUMPDEST SWAP2 POP PUSH2 0xADA DUP3 PUSH2 0xA9B JUMP JUMPDEST PUSH1 0x20 DUP3 ADD SWAP1 POP SWAP2 SWAP1 POP JUMP JUMPDEST PUSH0 PUSH1 0x20 DUP3 ADD SWAP1 POP DUP2 DUP2 SUB PUSH0 DUP4 ADD MSTORE PUSH2 0xAFC DUP2 PUSH2 0xAC3 JUMP JUMPDEST SWAP1 POP SWAP2 SWAP1 POP JUMP JUMPDEST PUSH32 0x4E487B7100000000000000000000000000000000000000000000000000000000 PUSH0 MSTORE PUSH1 0x22 PUSH1 0x4 MSTORE PUSH1 0x24 PUSH0 REVERT JUMPDEST PUSH0 PUSH1 0x2 DUP3 DIV SWAP1 POP PUSH1 0x1 DUP3 AND DUP1 PUSH2 0xB47 JUMPI PUSH1 0x7F DUP3 AND SWAP2 POP JUMPDEST PUSH1 0x20 DUP3 LT DUP2 SUB PUSH2 0xB5A JUMPI PUSH2 0xB59 PUSH2 0xB03 JUMP JUMPDEST JUMPDEST POP SWAP2 SWAP1 POP JUMP JUMPDEST PUSH0 DUP2 SWAP1 POP DUP2 PUSH0 MSTORE PUSH1 0x20 PUSH0 KECCAK256 SWAP1 POP SWAP2 SWAP1 POP JUMP JUMPDEST PUSH0 PUSH1 0x20 PUSH1 0x1F DUP4 ADD DIV SWAP1 POP SWAP2 SWAP1 POP JUMP JUMPDEST PUSH0 DUP3 DUP3 SHL SWAP1 POP SWAP3 SWAP2 POP POP JUMP JUMPDEST PUSH0 PUSH1 0x8 DUP4 MUL PUSH2 0xBBC PUSH32 0xFFFFFFFFFFFFFFFFFFFFFFFFFFFFFFFFFFFFFFFFFFFFFFFFFFFFFFFFFFFFFFFF DUP3 PUSH2 0xB81 JUMP JUMPDEST PUSH2 0xBC6 DUP7 DUP4 PUSH2 0xB81 JUMP JUMPDEST SWAP6 POP DUP1 NOT DUP5 AND SWAP4 POP DUP1 DUP7 AND DUP5 OR SWAP3 POP POP POP SWAP4 SWAP3 POP POP POP JUMP JUMPDEST PUSH0 DUP2 SWAP1 POP SWAP2 SWAP1 POP JUMP JUMPDEST PUSH0 DUP2 SWAP1 POP SWAP2 SWAP1 POP JUMP JUMPDEST PUSH0 PUSH2 0xC0A PUSH2 0xC05 PUSH2 0xC00 DUP5 PUSH2 0xBDE JUMP JUMPDEST PUSH2 0xBE7 JUMP JUMPDEST PUSH2 0xBDE JUMP JUMPDEST SWAP1 POP SWAP2 SWAP1 POP JUMP JUMPDEST PUSH0 DUP2 SWAP1 POP SWAP2 SWAP1 POP JUMP JUMPDEST PUSH2 0xC23 DUP4 PUSH2 0xBF0 JUMP JUMPDEST PUSH2 0xC37 PUSH2 0xC2F DUP3 PUSH2 0xC11 JUMP JUMPDEST DUP5 DUP5 SLOAD PUSH2 0xB8D JUMP JUMPDEST DUP3 SSTORE POP POP POP POP JUMP JUMPDEST PUSH0 SWAP1 JUMP JUMPDEST PUSH2 0xC4B PUSH2 0xC3F JUMP JUMPDEST PUSH2 0xC56 DUP2 DUP5 DUP5 PUSH2 0xC1A JUMP JUMPDEST POP POP POP JUMP JUMPDEST JUMPDEST DUP2 DUP2 LT ISZERO PUSH2 0xC79 JUMPI PUSH2 0xC6E PUSH0 DUP3 PUSH2 0xC43 JUMP JUMPDEST PUSH1 0x1 DUP2 ADD SWAP1 POP PUSH2 0xC5C JUMP JUMPDEST POP POP JUMP JUMPDEST PUSH1 0x1F DUP3 GT ISZERO PUSH2 0xCBE JUMPI PUSH2 0xC8F DUP2 PUSH2 0xB60 JUMP JUMPDEST PUSH2 0xC98 DUP5 PUSH2 0xB72 JUMP JUMPDEST DUP2 ADD PUSH1 0x20 DUP6 LT ISZERO PUSH2 0xCA7 JUMPI DUP2 SWAP1 POP JUMPDEST PUSH2 0xCBB PUSH2 0xCB3 DUP6 PUSH2 0xB72 JUMP JUMPDEST DUP4 ADD DUP3 PUSH2 0xC5B JUMP JUMPDEST POP POP JUMPDEST POP POP POP JUMP JUMPDEST PUSH0 DUP3 DUP3 SHR SWAP1 POP SWAP3 SWAP2 POP POP JUMP JUMPDEST PUSH0 PUSH2 0xCDE PUSH0 NOT DUP5 PUSH1 0x8 MUL PUSH2 0xCC3 JUMP JUMPDEST NOT DUP1 DUP4 AND SWAP2 POP POP SWAP3 SWAP2 POP POP JUMP JUMPDEST PUSH0 PUSH2 0xCF6 DUP4 DUP4 PUSH2 0xCCF JUMP JUMPDEST SWAP2 POP DUP3 PUSH1 0x2 MUL DUP3 OR SWAP1 POP SWAP3 SWAP2 POP POP JUMP JUMPDEST PUSH2 0xD0F DUP3 PUSH2 0x854 JUMP JUMPDEST PUSH8 0xFFFFFFFFFFFFFFFF DUP2 GT ISZERO PUSH2 0xD28 JUMPI PUSH2 0xD27 PUSH2 0x67C JUMP JUMPDEST JUMPDEST PUSH2 0xD32 DUP3 SLOAD PUSH2 0xB30 JUMP JUMPDEST PUSH2 0xD3D DUP3 DUP3 DUP6 PUSH2 0xC7D JUMP JUMPDEST PUSH0 PUSH1 0x20 SWAP1 POP PUSH1 0x1F DUP4 GT PUSH1 0x1 DUP2 EQ PUSH2 0xD6E JUMPI PUSH0 DUP5 ISZERO PUSH2 0xD5C JUMPI DUP3 DUP8 ADD MLOAD SWAP1 POP JUMPDEST PUSH2 0xD66 DUP6 DUP3 PUSH2 0xCEB JUMP JUMPDEST DUP7 SSTORE POP PUSH2 0xDCD JUMP JUMPDEST PUSH1 0x1F NOT DUP5 AND PUSH2 0xD7C DUP7 PUSH2 0xB60 JUMP JUMPDEST PUSH0 JUMPDEST DUP3 DUP2 LT ISZERO PUSH2 0xDA3 JUMPI DUP5 DUP10 ADD MLOAD DUP3 SSTORE PUSH1 0x1 DUP3 ADD SWAP2 POP PUSH1 0x20 DUP6 ADD SWAP5 POP PUSH1 0x20 DUP2 ADD SWAP1 POP PUSH2 0xD7E JUMP JUMPDEST DUP7 DUP4 LT ISZERO PUSH2 0xDC0 JUMPI DUP5 DUP10 ADD MLOAD PUSH2 0xDBC PUSH1 0x1F DUP10 AND DUP3 PUSH2 0xCCF JUMP JUMPDEST DUP4 SSTORE POP JUMPDEST PUSH1 0x1 PUSH1 0x2 DUP9 MUL ADD DUP9 SSTORE POP POP POP JUMPDEST POP POP POP POP POP POP JUMP JUMPDEST PUSH0 DUP2 SWAP1 POP SWAP3 SWAP2 POP POP JUMP JUMPDEST PUSH0 PUSH2 0xDE9 DUP3 PUSH2 0x854 JUMP JUMPDEST PUSH2 0xDF3 DUP2 DUP6 PUSH2 0xDD5 JUMP JUMPDEST SWAP4 POP PUSH2 0xE03 DUP2 DUP6 PUSH1 0x20 DUP7 ADD PUSH2 0x86E JUMP JUMPDEST DUP1 DUP5 ADD SWAP2 POP POP SWAP3 SWAP2 POP POP JUMP JUMPDEST PUSH32 0x207375636365737366756C6C7920726567697374657265640000000000000000 PUSH0 DUP3 ADD MSTORE POP JUMP JUMPDEST PUSH0 PUSH2 0xE43 PUSH1 0x18 DUP4 PUSH2 0xDD5 JUMP JUMPDEST SWAP2 POP PUSH2 0xE4E DUP3 PUSH2 0xE0F JUMP JUMPDEST PUSH1 0x18 DUP3 ADD SWAP1 POP SWAP2 SWAP1 POP JUMP JUMPDEST PUSH0 PUSH2 0xE64 DUP3 DUP5 PUSH2 0xDDF JUMP JUMPDEST SWAP2 POP PUSH2 0xE6F DUP3 PUSH2 0xE37 JUMP JUMPDEST SWAP2 POP DUP2 SWAP1 POP SWAP3 SWAP2 POP POP JUMP JUMPDEST PUSH32 0x556E617574686F72697A65640000000000000000000000000000000000000000 PUSH0 DUP3 ADD MSTORE POP JUMP JUMPDEST PUSH0 PUSH2 0xEAE PUSH1 0xC DUP4 PUSH2 0x85E JUMP JUMPDEST SWAP2 POP PUSH2 0xEB9 DUP3 PUSH2 0xE7A JUMP JUMPDEST PUSH1 0x20 DUP3 ADD SWAP1 POP SWAP2 SWAP1 POP JUMP JUMPDEST PUSH0 PUSH1 0x20 DUP3 ADD SWAP1 POP DUP2 DUP2 SUB PUSH0 DUP4 ADD MSTORE PUSH2 0xEDB DUP2 PUSH2 0xEA2 JUMP JUMPDEST SWAP1 POP SWAP2 SWAP1 POP JUMP JUMPDEST PUSH32 0x4E487B7100000000000000000000000000000000000000000000000000000000 PUSH0 MSTORE PUSH1 0x1 PUSH1 0x4 MSTORE PUSH1 0x24 PUSH0 REVERT JUMPDEST PUSH32 0x426C6F6720646F65736E27742065786973747300000000000000000000000000 PUSH0 DUP3 ADD MSTORE POP JUMP JUMPDEST PUSH0 PUSH2 0xF43 PUSH1 0x13 DUP4 PUSH2 0x85E JUMP JUMPDEST SWAP2 POP PUSH2 0xF4E DUP3 PUSH2 0xF0F JUMP JUMPDEST PUSH1 0x20 DUP3 ADD SWAP1 POP SWAP2 SWAP1 POP JUMP JUMPDEST PUSH0 PUSH1 0x20 DUP3 ADD SWAP1 POP DUP2 DUP2 SUB PUSH0 DUP4 ADD MSTORE PUSH2 0xF70 DUP2 PUSH2 0xF37 JUMP JUMPDEST SWAP1 POP SWAP2 SWAP1 POP JUMP INVALID LOG2 PUSH5 0x6970667358 0x22 SLT KECCAK256 0xE9 0xE5 LOG2 0xE1 NUMBER 0x2F CREATE PUSH24 0x6E8DB28F9EF1ADA2D2E73C3752B438180074A53C18985CEA PUSH5 0x736F6C6343 STOP ADDMOD BYTE STOP CALLER "
				},
				"gasEstimates": {
					"creation": {
						"codeDepositCost": "802600",
						"executionCost": "25101",
						"totalCost": "827701"
					},
					"external": {
						"deleteBlogs(address,address)": "infinite",
						"registerUser(string,address)": "infinite",
						"viewBlog(address)": "infinite",
						"writeBlog(string,string,address)": "infinite"
					}
				},
				"methodIdentifiers": {
					"deleteBlogs(address,address)": "2483dc04",
					"registerUser(string,address)": "0e54b872",
					"viewBlog(address)": "a52745e0",
					"writeBlog(string,string,address)": "6e7ef18e"
				}
			},
			"storageLayout": {
				"storage": [
					{
						"astId": 18,
						"contract": "contracts/myContract.sol:BloggingApp",
						"label": "users",
						"offset": 0,
						"slot": "0",
						"type": "t_mapping(t_address,t_struct(User)13_storage)"
					},
					{
						"astId": 60,
						"contract": "contracts/myContract.sol:BloggingApp",
						"label": "blogs",
						"offset": 0,
						"slot": "1",
						"type": "t_mapping(t_address,t_struct(Blog)8_storage)"
					},
					{
						"astId": 113,
						"contract": "contracts/myContract.sol:BloggingApp",
						"label": "admin",
						"offset": 0,
						"slot": "2",
						"type": "t_address"
					}
				],
				"types": {
					"t_address": {
						"encoding": "inplace",
						"label": "address",
						"numberOfBytes": "20"
					},
					"t_bool": {
						"encoding": "inplace",
						"label": "bool",
						"numberOfBytes": "1"
					},
					"t_mapping(t_address,t_struct(Blog)8_storage)": {
						"encoding": "mapping",
						"key": "t_address",
						"label": "mapping(address => struct BloggingApp.Blog)",
						"numberOfBytes": "32",
						"value": "t_struct(Blog)8_storage"
					},
					"t_mapping(t_address,t_struct(User)13_storage)": {
						"encoding": "mapping",
						"key": "t_address",
						"label": "mapping(address => struct BloggingApp.User)",
						"numberOfBytes": "32",
						"value": "t_struct(User)13_storage"
					},
					"t_string_storage": {
						"encoding": "bytes",
						"label": "string",
						"numberOfBytes": "32"
					},
					"t_struct(Blog)8_storage": {
						"encoding": "inplace",
						"label": "struct BloggingApp.Blog",
						"members": [
							{
								"astId": 3,
								"contract": "contracts/myContract.sol:BloggingApp",
								"label": "title",
								"offset": 0,
								"slot": "0",
								"type": "t_string_storage"
							},
							{
								"astId": 5,
								"contract": "contracts/myContract.sol:BloggingApp",
								"label": "body",
								"offset": 0,
								"slot": "1",
								"type": "t_string_storage"
							},
							{
								"astId": 7,
								"contract": "contracts/myContract.sol:BloggingApp",
								"label": "exists",
								"offset": 0,
								"slot": "2",
								"type": "t_bool"
							}
						],
						"numberOfBytes": "96"
					},
					"t_struct(User)13_storage": {
						"encoding": "inplace",
						"label": "struct BloggingApp.User",
						"members": [
							{
								"astId": 10,
								"contract": "contracts/myContract.sol:BloggingApp",
								"label": "username",
								"offset": 0,
								"slot": "0",
								"type": "t_string_storage"
							},
							{
								"astId": 12,
								"contract": "contracts/myContract.sol:BloggingApp",
								"label": "registered",
								"offset": 0,
								"slot": "1",
								"type": "t_bool"
							}
						],
						"numberOfBytes": "64"
					}
				}
			},
			"userdoc": {
				"kind": "user",
				"methods": {},
				"version": 1
			}
		}
	}
}